:020000040800F2
:1000000050270020B10100084B2E00083D260008B3
:10001000492E0008750C0008F537000800000000A4
:10002000000000000000000000000000553400083F
:10003000770C0008000000004D2E000885340008F1
:10004000CB010008CB010008CB010008CB01000860
:10005000CB010008CB010008CB010008CB01000850
:10006000CB010008CB010008CB010008CB01000840
:10007000CB010008CB010008CB010008CB01000830
:10008000CB010008CB010008CB01000800000000F4
:100090000000000000000000000000009B0C0008B1
:1000A000CB010008CB010008CB010008CB01000800
:1000B000CB010008CB010008CB010008CB010008F0
:1000C000CB010008CB010008CB010008CB010008E0
:1000D000CB010008CB010008CB01000800000000A4
:1000E000930C0008CB010008CB01000800000000C1
:1000F000000000000000000000000000CB0100082C
:1001000000000000CB010008CB010008CB01000873
:1001100000000000000000000000000000000000DF
:10012000CB010008CB010008CB010008CB0100087F
:10013000CB010008000000000000000000000000EB
:10014000000000000000000000000000CB010008DB
:10015000CB010008CB010008CB010008CB0100084F
:10016000CB010008CB0100080000000000000000E7
:10017000000000000000000000000000000000007F
:1001800000000000CB01000800000000000000009B
:10019000CB010008CB010008DFF810D000F068FBAD
:1001A00000480047E1430008AFF3008050270020DB
:1001B0000648804706480047FEE7FEE7FEE7FEE701
:1001C000FEE7FEE7FEE7FEE7FEE7FEE72135000873
:1001D000990100082DE9F05F0546002092469B46F4
:1001E00088460646814640241BE02846414647464D
:1001F000224600F06EFA53465A46C01A914110D377
:1002000011461846224600F055FA2D1A67EB0108F0
:100210004F4622460120002100F04CFA17EB00095E
:100220004E41201EA4F10104DFDC484631462A4637
:100230004346BDE8F09FD2B201E000F8012B491E11
:10024000FBD270470022F6E710B513460A46044673
:100250001946FFF7F0FF204610BD2DE9FE4F8046FE
:1002600081EA0300C00F0C46009021F0004123F00A
:100270000045B8EB0200A94105D240462146904610
:100280001C460B46024623F00040104347D0270D82
:10029000C7F30A00C3F30A510290401A01904028A4
:1002A0006BDAC3F3130040F4801B0098924620B130
:1002B0000023D2EB030A63EB0B0B01985946C0F104
:1002C0004002504600F0F6F906460D4650465946A3
:1002D000019A00F00EFA10EB08006141002487EA51
:1002E000115284EAE7731A4340D0009A62B3019A2C
:1002F000012A4FEA075215DC001B61EB02014FF0A7
:10030000004202EA0752CDE90042001C41F580118B
:1003100032462B4600F045FA03B0BDE8F08F404668
:100320002146F9E7001B61EB0201001C41F5801337
:1003300000185B412018A2F5001747EB030140EAC3
:10034000D570B6196D4111E06D084FEA360645EAE1
:10035000C0754FEA0752001B61EB0201001C41F51A
:10036000801149084FEA30000019514132462B46AE
:1003700003B0BDE8F04F00F005BA0098012240003C
:100380000023D0EB020263EBE073009821464FEAB2
:10039000E074B8EB000061EB0401E9E783F000438F
:1003A0005BE781F0004158E72DE9FE4F81EA030445
:1003B00004F0004421F0004100944FF0000B23F0C2
:1003C000004350EA01045ED052EA03045BD0C3F359
:1003D0000A54C1F30A552C44A4F2F3340194A0FB4F
:1003E0000254C1F3130141F48011C3F3130343F426
:1003F000801301FB024400FB034E840A970A44EA7F
:10040000815447EA8357A4FB076802958D0A05FBD0
:1004100007854FEA932C04FB0C542705029D4FEAF5
:10042000065847EA1637B5EB08056EEB070C870E42
:10043000920E47EA811742EA8312A7FB0201B6EB4C
:100440000B0164EB00042B0D43EA0C335E1844EB04
:100450001C50DA465146E7FB0201C5F313044FEA8C
:100460000B3343EA14534FEA0432019C43EA060378
:10047000A4F10C040294009CCDE900B400F091F9C1
:1004800003B0BDE8F08F00200146F9E72DE9F04DFB
:1004900081EA030404F0004B21F0004514464FF0BC
:1004A000000A23F0004150EA050220D054EA01027C
:1004B0001DD0C5F30A570246C5F31303C1F3130059
:1004C000C1F30A5640F4801543F48013A7EB0608E5
:1004D000101BD64608F2FD3873EB050002D308F175
:1004E000010801E092185B41B8F1000F03DA002027
:1004F0000146BDE8F08D00204FF480110646844689
:100500000EE0171B73EB050705D3121B63EB050306
:1005100006434CEA010C49084FEA300092185B414F
:1005200050EA0107EDD152EA030012D082EA04003A
:1005300083EA0501084305D0101BAB4106D2012216
:10054000002306E000224FF0004302E06FF00102BA
:1005500053101AEB06004CEB085110EB0A0041EB6C
:100560000B01BDE8F04D00F00DB90EB5C10F80EAEA
:10057000E0700844CA07002140F233438DE80E00C2
:100580000A460B4600F00DF903B000BD70B5C1F38B
:100590000A5201F000450024C1F3130140F2FF3379
:1005A00041F480119A4201DA002070BD40F23343D9
:1005B0009A42A2F2334203DC524200F08AF800E091
:1005C00090402C43F1D0404270BD00F0004230F02A
:1005D00000400AD0C10D01F56071C0F3160042EA77
:1005E0000151C2084007114370470020014670477F
:1005F00030B5041E71F1000404DB4FF000444042AA
:1006000064EB0101141E73F1000405DB1C464FF07E
:100610000043524263EB04038B4208BF824230BD69
:1006200030B5041E71F1000404DB4FF00044404279
:1006300064EB0101141E73F1000405DB1C464FF04E
:100640000043524263EB0403994208BF904230BD1D
:1006500001F0004330B421F0004150EA010206D01D
:100660000A0DA2F56072C1F31301002A02DC30BC4E
:1006700000207047440F44EAC104C100E01830BCB8
:1006800000EBC25000F047B830B50B4601460020E1
:100690002022012409E021FA02F59D4205D303FA44
:1006A00002F5491B04FA02F52844151EA2F10102C5
:1006B000F1DC30BD202A04DB203A00FA02F10020F0
:1006C00070479140C2F1200320FA03F31943904090
:1006D0007047202A04DB203A21FA02F000217047FB
:1006E00021FA02F3D040C2F120029140084319469A
:1006F0007047202A06DBCB17203A41FA02F043EA82
:10070000E07306E041FA02F3D040C2F120029140CA
:100710000843194670470029A8BF7047401C49008C
:1007200008BF20F00100704710B4B0FA80FC00FA56
:100730000CF050EA010404BF10BC704749B1CCF181
:10074000200421FA04F411FA0CF118BF012121430D
:100750000843A3EB0C01CB1D4FEA00614FEA1020C8
:1007600042BF002010BC704700EBC350104400296A
:10077000A4BF10BC7047401C490008BF20F0010016
:1007800010BC704710B5141E73F1000408DA401C49
:1007900041F1000192185B411A4301D120F00100A0
:1007A00010BD2DE9F04D92469B4611B1B1FA81F290
:1007B00002E0B0FA80F220329046FFF77BFF044659
:1007C0000F4640EA0A0041EA0B0153465A460843E5
:1007D00013D0114653EA010019D0C8F14002504627
:1007E000FFF777FF05460E46504659464246FFF74B
:1007F00061FF084305D0012004E020463946BDE8EA
:10080000F08D0020054346EAE0762C4337430A98F2
:100810006305E40AA0EB08000022FD0A44EA4754FD
:100820000A3002D500200146E9E7010510196941A7
:10083000DDE9084500196941BDE8F04DA2E7C1F3C3
:100840000A52C1F3130140F2FF3341F480119A427E
:1008500002DA00200146704740F233439A42A2F286
:10086000334202DC5242FFF734BFFFF723BF0000E0
:10087000064C074D06E0E06840F0010394E80700ED
:1008800098471034AC42F6D3FFF78AFC687C000826
:10089000887C000801F0D4BEF0B585B000208DF84A
:1008A00000008DF804006946042001F007FF01A94B
:1008B000062001F003FF9DF800009DF80410401A87
:1008C00044B2002C01DA203464B2002C51DD002542
:1008D0004FF400772A4E4AE0062202A9072001F0D1
:1008E000FBFE9DF808009DF80910000440EA012075
:1008F0009DF80A109DF80C200843C0F311019DF8E3
:100900000B00000440EA02209DF80D20104372887D
:10091000C0F31100BA4229D232783ABB00EE101A65
:1009200018497288B8EE400A01EBC202DFED160AE0
:1009300082ED000A728800EE100A01EBC201134832
:10094000C1ED010AB8EE400A718800EBC10181EDEA
:10095000000A718800EBC100C0ED010A7088401CDC
:1009600070807088B84201D3012030706D1CA542A0
:10097000B2DB04A9002001F0A1FE05B0F0BD00002B
:100980004C0000205002002000000000D012002087
:100990002DE9F0472DED0A8BDFF8109299F8000051
:1009A00001287DD19FED82BA824C0020B0EE4B0A27
:1009B00004F58456F0EE400AF0EE408AB0EE408A2C
:1009C0004FF4007704EBC00191ED001A06EBC00173
:1009D000401C31EE000A91ED001AB84271EE200A77
:1009E000F0DB9FED751A002020EE019A60EE819AEF
:1009F00004EBC00191ED000A30EE490A81ED000AD6
:100A000006EBC001401C91ED000AB84230EE690AC5
:100A100081ED000AECDB674800F044F9674800F01C
:100A200041F900254FEA070804EBC50797ED000AD6
:100A3000D7ED010A20EE000A00EEA00A03F030F81C
:100A400087ED000A06EBC50797ED000AD7ED010A0E
:100A500020EE000A00EEA00A03F022F841466D1CC9
:100A600087ED000A8D42DFDB5FF0010004EBC0027E
:100A700092ED000A06EBC002401C70EE288A92ED4F
:100A8000000A884230EE088AF0DB1E21494803F054
:100A900083FCFFF76AFD9FED4A1B53EC112B00E02E
:100AA0007FE0FFF781FC9FED481B53EC112BFFF714
:100AB0007BFC9FED471B53EC112BFFF775FCFFF7F9
:100AC00065FD28EE090A68EEA90A0546C9F8040082
:100AD0004C4680EE208A18EE100AFFF776FD9FED57
:100AE0003E1B53EC112BFFF75FFC41EC1C0B18EE87
:100AF000100AFFF76AFD41EC1A0B18EE100AFFF717
:100B000064FD9FED371B53EC112BFFF74DFC53ECAD
:100B10001A2BFFF749FC53EC1C2BFFF79EFB9FEDB4
:100B2000321B53EC112BFFF798FBFFF791FD304977
:100B3000A060884203DD9FED2F0A84ED020A19EEC2
:100B4000100A2D490026884206DA2CA002F074FF14
:100B5000666084ED02BA12E0A5F129008B280BD261
:100B6000A068FFF732FD41EC100B294653EC102B27
:100B70002CA002F061FF02E035A002F05DFF656885
:100B8000A5F129008B280AD2A068FFF71EFD41ECD1
:100B9000100B294653EC102B25A002F04DFF668068
:100BA0002670BDEC0A8BBDE8F08700004C000020E9
:100BB00000000000500200200000003BD012002086
:100BC0000000000000005940000000000000603FED
:100BD0000000000000004E40B4C876BE9F5A3E4060
:100BE00048E17A14AE8746C0AE47E17A14B6574062
:100BF000E1FAC742E1FAC7420060EA46B4ABB8D0B6
:100C0000C6F7BFD5CFD0A3BAC7EBBDABCAD6D6B84F
:100C1000C6BDB7C5D4DAB4ABB8D0C6F7C9CF2E2E8F
:100C20002E0D0A003F20B2E2CBE3B3C9B9A62120C2
:100C3000D0C4C2CA3A2025642042504D2C20D1AAEB
:100C4000D1F53A20252E32662025250D0A00000018
:100C50003F3F20D5FDD4DAB2E2CBE3A3ACC7EBB182
:100C6000A3B3D6CAD6D6B8C6BDCEC82E2E2E0D0A70
:100C700000000000FEE77047B0EE402A20EE010AB7
:100C800000EEE10A62EE211A40EE811AF0EE610AEE
:100C900070474FF4006000F0EFB8202000F0ECB88F
:100CA00072B6FEE72DE9F05F00212DED068B0646BA
:100CB0004FF4807340F2FF190A468A420BDA06EBC2
:100CC000C10006EBC204D0E90057D4E9008CC0E9AA
:100CD000008CC4E90057184603E0091A00EBD070F5
:100CE00040108842F9DD521C01444A45E5DB4FF4CF
:100CF000007A5046012700E07F1C00EBD0704010C6
:100D00000128F9D1012577E0691E022000FA01F8D7
:100D100008EBD8704410B7EE008ADFED3A8A20461F
:100D2000FFF723FC8B464BEC100B9FED37AB814656
:100D300053EC102B51EC1A0BFFF7A8FB41EC100BF6
:100D400002F05AFD51EC100BFFF782FC4BEC109BAC
:100D500009EE100A53EC102B51EC1A0BFFF796FB1F
:100D600041EC100B02F05CFD51EC100BFFF770FC36
:100D700000EE100A0021631EF1EE402A39E0084619
:100D8000D14625E0021906EBC202F0EE681A92EC99
:100D9000020AB0EE481AFFF76FFF06EBC00C4044A2
:100DA0009CED001A31EE401A82ED001A9CED011AFA
:100DB00031EE601A82ED011A9CED001A31EE000A44
:100DC0008CED000A9CED010A30EE200A8CED010A40
:100DD0004845D7DBF0EE621AB0EE491AF0EE680A29
:100DE000B0EE480AFFF748FFB0EE408AF0EE608AA6
:100DF000491C9942C3DD6D1CBD4285DDBDEC068BEF
:100E0000BDE8F09F00000000182D4454FB2109406C
:100E100001484068704700004C000020014890EDF8
:100E2000020A70474C00002070B5044600F026F915
:100E30000546601C02D004480078044400F01EF906
:100E4000401BA042FAD370BD1C00002010B5202822
:100E500009D0B0F5006F09D1FFF71EFDBDE81040C5
:100E600003A002F0E9BD03490120087010BD000095
:100E70002E0D0A0000000020044910B50A68024245
:100E800002D00860FFF7E2FF10BD0000143C0140F3
:100E90002DE9F84FDFF8B8A10022012403254FF017
:100EA0000F090AF1040BAAF1040E00BF0B6804FA43
:100EB00002F63340B34273D10F7907F00307012FD5
:100EC00001D0022F16D187684FEA420805FA08FCC4
:100ED00027EA0C07D1F80CC00CFA08FC4CEA070C06
:100EE000C0F808C04768B7430E79C6F300169640AD
:100EF0003E4346600E79F643B6070DD0C7685600EC
:100F000005FA06FC27EA0C07D1F808C00CFA06FC23
:100F10004CEA070CC0F80CC00E7906F00306022E4E
:100F200010D1D60800EB8608D8F8206057074FEAA2
:100F3000D76C09FA0CF7BE430F6907FA0CF7374371
:100F4000C8F8207006684FEA420C05FA0CF7BE4359
:100F50000F7907F0030707FA0CF7374307604E686D
:100F600016F4403F6DD03B4E376847F480473760FA
:100F7000366822F0030706F480460096364E07EBEB
:100F8000060CDCF8086897073F0F09FA07F826EA0D
:100F90000806DFF8C880404503D14FF000081EE086
:100FA0004FE0DFF8BC80404502D14FF0010816E069
:100FB000DFF8B080404502D14FF002080FE0DFF8C3
:100FC000A880404502D14FF0030808E0DFF89C807C
:100FD000404502D14FF0040801E04FF0070808FA3D
:100FE00007F848EA0608CCF80888DAF8006057469F
:100FF000D1F804C09E435FEACC2C00D51E433E606E
:10100000DBF800605F46D1F804C09E435FEA8C2C99
:1010100000D51E433E60DEF800607746D1F804C07C
:101020009E435FEA8C3C00D51E433E60084F083F5C
:101030003E68D1F804C09E435FEACC3C00D51E4315
:101040003E60521C102AFFF431AFBDE8F88F00005B
:10105000083C01404438024000300140000002409A
:101060000004024000080240000C02400010024050
:101070000AB1816170470904FBE7000001488068FC
:10108000704700001C00002070B5040025D094F8C3
:101090003D00002520B984F83C50204600F052FA6B
:1010A000242084F83D002068016821F001010160DE
:1010B0002068016841F4004101602068016821F462
:1010C0000041016000F0B6FC4D4A6168914201D8D0
:1010D0004C4900E04C49884201D2012070BD4B4987
:1010E0002368B0FBF1F15E6826F03F060E435E60B8
:1010F0006368934206D94FF4967359434FF47A7359
:10110000B1FBF3F12368491C1E6A26F03F06314308
:1011100019626168914210D84900401EB0FBF1F29B
:10112000521CC2F30B02042A01D2042022E0B0FBBD
:10113000F1F0401CC0F30B001CE0A268F2B301EB1D
:10114000C10303EB0116431EB3FBF6F35B1C43F430
:1011500080431B0549D092B301EBC10202EB0111A0
:10116000401EB0FBF1F0401CC0F30B0040F4804087
:1011700040F400402168CA694CF6FF739A4310435B
:10118000C861D4E9071001432068026822F0C00258
:1011900011430160D4E9030101432068826848F2E9
:1011A000FF339A4311438160D4E905010843216864
:1011B000CA6822F0FF021043C86001E00EE016E0AA
:1011C0002068016841F0010101602564202084F855
:1011D0003D00256384F83E50002070BD01EB4106C0
:1011E000431EB3FBF6F35B1CB3E70120C2E701EB40
:1011F0004101401EB0FBF1F0401CC0F30B00B7E70B
:10120000A086010080841E0000093D0040420F00BE
:101210002DE9FF4F83B09A46DDE9118793460446D6
:10122000DDF84090FFF72AFF054694F83D0020289E
:1012300070D11923012274492046009501F082FBE8
:101240000028F5D194F83C00012863D0012084F8EF
:101250003C0020680168C90703D1016841F0010121
:1012600001602068016821F400610160222084F897
:101270003D00402084F83E0000262664C4F82490F7
:10128000A4F82A80608D20856048E062CDE9007571
:1012900053465A462046049901F056FA002879D15F
:1012A000208DD0B1012821D00228206824D04169A6
:1012B00080690090208D032866D801282BD05449DE
:1012C00002283B464FF00002009557D08846204642
:1012D00001F038FB00285DD13AE02068416981695E
:1012E0000091016841F4007101607DE020680168AF
:1012F00021F480610160F0E7016821F48061016000
:101300002068016841F400610160206841698069DA
:10131000009069E075E02A463946204601F0B8FBA6
:1013200088BB54E02068016841F4007101602068C6
:101330000069616A0870606A401C6062218D491E04
:101340002185618D491E618521680969017042E02E
:101350002068016821F48061016020680069616A89
:101360000870606A401C6062208D401E2085608D80
:10137000401E60853B46002241460095204601F014
:10138000E1FA00B9CEE705E02A463946204601F0E9
:101390007FFB18B1012007B0BDE8F08F206800691D
:1013A000616A0870606A401C6062208D401E81B2D4
:1013B0002185608D401E608520684269D2435207B6
:1013C00012D4032903D1016821F4806101602068EF
:1013D0000069616A0870606A401C6062208D401E6E
:1013E0002085608D401E6085208D00287FF462AFCF
:1013F000202084F83D0084F83E6084F83C600020A2
:10140000C9E70220C7E70000020010000000FFFF4C
:10141000040001002DE9FF4F83B09A46DDE91197E2
:1014200093460446DDF84080FFF728FE054694F811
:101430003D0020287FD119230122404920460095F4
:1014400001F080FA002876D194F83C00012872D08F
:10145000012084F83C0020680168C90703D10168B5
:1014600041F0010101602068016821F40061016020
:10147000212084F83D00402084F83E0000262664A8
:10148000C4F82480A4F82A90608D20852C48E0625E
:10149000CDE9007553465A462046049901F0D2F929
:1014A00070B930E02A463946204601F029FB58B190
:1014B000206C042804D12068016841F400710160A7
:1014C000012007B0BDE8F08F606A216800780861EC
:1014D000606A401C6062218D491E89B22185628D3F
:1014E000521E628522685369DB435B070BD469B1E6
:1014F00000781061606A401C6062208D401E20856B
:10150000608D401E6085208D0028CBD12A4639464B
:10151000204601F0EBF90028CAD154F83D0B0168D0
:1015200041F400710160202004F81E09E677667717
:101530000020C6E7FFE70220C3E70000020010001A
:101540000000FFFF2DE9F04387B0044614216846F0
:10155000FEF778FE2368434CDFF8048141481225EA
:10156000012203260421404F10344FF0000C434564
:1015700019D1036843F0020303600068029200F08F
:1015800002000590CDE90361C020CDE90005694660
:101590003846FFF77DFC206840F40010206020688A
:1015A00000F4001028E0DFF8C4804FF0090943453B
:1015B00026D10268E04642F002020260006800F0B4
:1015C00002000590CDE903614FF480608DE82101B0
:1015D00069463846FFF75CFC08208DE82101CDE91B
:1015E000036969463846FFF753FC206840F48000E1
:1015F0002060206800F48000059007B0BDE8F0830B
:10160000DFF86CC06345F8D1036843F00103036061
:10161000036803F001030593036843F002030360CA
:101620000068904600F002000590CDE903614FF498
:1016300080708DE8210169460E48FFF729FC1020D3
:101640008DE82101CDE9036969463846FFF720FCA2
:10165000206840F400002060206800F40000CBE720
:10166000005400403038024000040240005800405E
:10167000005C00400000024002488168027811448A
:10168000816070471C0000200B4810B5016841F4D0
:1016900000710160016841F480610160016841F4FA
:1016A00080710160032000F06FF80F2000F006F851
:1016B00000F024F8002010BD003C024070B50D4D34
:1016C00004464FF47A712878B1FBF0F00A490968B2
:1016D000B1FBF0F000F0E5FE48B9102C07D2002273
:1016E0002146501E00F030F800206C6070BD0120D3
:1016F00070BD00001C000020280000200A4808B52A
:10170000016841F480410160006800F4804000906D
:101710000548001F016841F080510160006800F039
:101720008050009008BD000044380240002809DBCA
:1017300000F01F02012191404009800000F1E020EB
:10174000C0F8001170470000F0B40E4B1B680C4647
:10175000C3F30223C3F10705042D00D90425191D85
:10176000072901D2002300E0DB1E012606FA05F15D
:10177000491E214099409E40761E16403143F0BCE0
:1017800002F07EB90CED00E0064900F0070208689F
:101790004FF6FF03184040EA0220034A1043086056
:1017A000704700000CED00E00000FA052DE9F84359
:1017B000044600684FF00109C1074FF0000601D14F
:1017C000400729D5DFF82081C8F86860FFF756FC8C
:1017D0000746464D05E000BFFFF750FCC01B02283E
:1017E00059D828680001F7D4A068217B800140EA1D
:1017F0000170616808433D4984310860C8F8689009
:10180000FFF73CFC074604E0FFF738FCC01B02284A
:1018100041D828680001F7D52078800752D5334891
:101820004030016841F0805101600068304D00F0A7
:1018300080500090286840F480702860FFF71EFCFC
:10184000074604E0FFF71AFCC01B022823D82868CB
:10185000C005F7D5254D7035286810F4407020D0AC
:10186000218A01F4407181421BD02868214920F46B
:101870004070C1F800900E6028602868C00710D042
:10188000FFF7FCFB064641F2883707E0FFF7F6FB5F
:10189000801BB84202D90320BDE8F883286880077E
:1018A000F4D521691148C1F301220830032A12D06E
:1018B000016821F4F81101602868218AC1F30B0145
:1018C000084328602078000703D50B49207DC1F824
:1018D000E0010020E0E70268084B22F4F81219400A
:1018E0000A430260E8E70000000047420038024077
:1018F00000700040400E474200104742FFFCFF0FBF
:101900002DE9F0470E46050065D0DFF81481D8F8C0
:101910000000F7B200F00700B04207D288F800706C
:10192000D8F8000000F00700B04254D128683D4CC0
:10193000810712D5400703D5206840F4E0502060AD
:101940002878000703D5206840F4604020602068B4
:10195000A96820F0F000084320602878C0072DD047
:10196000304968680839012812D0022813D00328AA
:1019700011D00968890700292DDA216821F00301B7
:1019800001432160FFF77AFB814641F2883A0EE07D
:1019900009688903EFE709688901ECE7FFF76EFB47
:1019A000A0EB0901514502D90320BDE8F08720686A
:1019B000696800F00C00B0EB810FEFD1D8F800108F
:1019C000404601F00701B14207D90770006800F0F6
:1019D0000700B04201D00120E7E72878400705D58D
:1019E0002068E96820F4E050084320602878000768
:1019F00006D52068296920F4604040EAC1002060D3
:101A000000F038F82168084AC1F30311515CC8405E
:101A10000649086006480068FFF750FE0020C4E74A
:101A2000003C024008380240D84D00082800002041
:101A3000200000200448054900680968044AC1F3F1
:101A40008221515CC84070472800002008380240BD
:101A5000E84D00080448054900680968044AC1F3D4
:101A60004231515CC84070472800002008380240CD
:101A7000E84D0008154810B5006810F00C02144835
:101A800013D01449042A0FD0082A0ED10F4C241F5A
:101A90002268236802F03F025B0207D52068C0F38A
:101AA0008810A0FB010106E0084610BD2168C1F3C3
:101AB0008811A1FB00010023FEF78CFB2168C1F314
:101AC0000141491C4900B0FBF1F010BD083802404B
:101AD0000024F40040787D012DE9F84F04006ED019
:101AE0002078DFF84C93C007A9F104054AD009F12A
:101AF00004000168C1F38101012908D00068C0F326
:101B0000810002280AD1D9F80000400206D52868D1
:101B1000800337D560680028E1D033E06068B0F515
:101B2000803F10D0B0F5A02F286810D020F480306E
:101B30002860286820F4802028606068A8B1FFF73A
:101B40009DFA06460DE0286840F48030F4E740F442
:101B500080202860F7E700BFFFF790FA801B642819
:101B600073D828688003F7D50CE0FFF787FA06469C
:101B700005E000BFFFF782FA801B6428F0D82868D0
:101B80008003F7D42078DFF8AC8280074FF0000A9A
:101B90003ED5A748001D016811F00C0F08D0006861
:101BA000C0F3810002280BD1D9F80000400207D40D
:101BB0002868800716D5E068012800D112E033E1DB
:101BC000E068B8B10120C8F80000FFF757FA0646F0
:101BD00005E000BFFFF752FA801B0228C0D8286832
:101BE0008007F7D52868216920F0F80040EAC10095
:101BF00028600DE0C8F800A0FFF740FA064604E0B0
:101C0000FFF73CFA801B02281FD828688007F7D40A
:101C10002078000722D5864F87486169703771B1F7
:101C200001210160FFF72AFA064604E0FFF726FAD1
:101C3000801B022809D838688007F7D50EE0C0F865
:101C400000A0FFF71BFA064605E082E0FFF716FA50
:101C5000801B02287DD838688007F7D42078400799
:101C600068D5DFF8CCB100270BF13C0BDBF80000A6
:101C7000C0000BD4DBF8001041F08051CBF800100D
:101C8000DBF80000012700F0805000906B4E3068B8
:101C9000C00510D4306840F480703060FFF7EEF972
:101CA000009005E0FFF7EAF90099401A022850D8A1
:101CB0003068C005F6D55E4EA0686C3601280FD09E
:101CC0000528306810D020F001003060306820F026
:101CD00004003060A068B8B1FFF7D0F900900FE0C1
:101CE000306840F00100F4E740F004003060F7E7AE
:101CF000FFF7C4F90099411A41F28830814266D851
:101D000030688007F4D50EE0FFF7B8F9009007E0DF
:101D1000FFF7B4F90099411A41F28830814256D850
:101D200030688007F4D42FB1DBF8001021F0805127
:101D3000CBF80010A069C8B33D49091D0968C1F37B
:101D4000810102294AD00228504607D0C8F8600015
:101D500000E03CE0FFF792F904463BE04746C8F854
:101D60006000FFF78BF9064605E000BFFFF786F934
:101D7000801B02282BD828688001F7D4D4E90701FA
:101D80000843A16A2E4A490802EB0141626A41EA0E
:101D90008211084394F82C1040EA0161C9F8001040
:101DA00001203866FFF76AF9044606E03EE000BF0E
:101DB000FFF764F9001B022809D828688001F7D5CD
:101DC00034E000BFFFF75AF9001B022802D90320B4
:101DD000BDE8F88F28688001F4D427E00128F7D007
:101DE000D9F80000E26900F4800191421CD1226A16
:101DF00000F03F01914217D147F6C071626A01407D
:101E0000B1EB821F10D1A26A4FF0FF3300F44031D2
:101E100003EB5202B1EB024F06D194F82C1000F004
:101E20007060B0EB016F01D00120D1E70020CFE757
:101E30000438024000004742800E474200700040D4
:101E40000000FFFF2DE9F74F0446007F934601286D
:101E50001BD04FF0010884F81C80022060772168B5
:101E6000CA204862206853214162206880684FF090
:101E7000000540054FF0FF064FF0030A4FF47A7952
:101E80000FD5FFF7FBF8074607E00220BDE8FE8FFD
:101E9000FFF7F4F8C01B484519D82068C068400710
:101EA000F6D42068816821F4806181602068C1686F
:101EB00001F0800161F49061C160FFF7DFF807462F
:101EC0000CE000BFFFF7DAF8C01B484506D92068D0
:101ED000466284F81DA025770320D7E72068C068F4
:101EE0004007EFD52068816821F0070181602068F4
:101EF000816841EA0B01816021680198486120688E
:101F0000816841F4806181602068466284F81D80A8
:101F100025770020BAE7000010B500680B4641683D
:101F20000D480140080CD870C1F304245C7001F026
:101F30003F049C70C1F34231197052B900F087FF21
:101F4000D870587800F083FF5870987800F07FFFC1
:101F50009870002010BD00003FFFFF0010B50B4639
:101F60000168896A596001680969C1F30E019960C5
:101F7000006801680D480140C1F305401870C1F3C5
:101F800006245C7001F07F049C70890DD97052B9F1
:101F900000F05DFF1870587800F059FF587098787D
:101FA00000F055FF9870002010BD00007F7F7F007B
:101FB00010B5040002D0607F10B106E0012010BD12
:101FC00000202077204600F041F80220607720684A
:101FD000C168C943C90632D5CA214162216853206C
:101FE0004862204600F048FF20BB20688168164AFE
:101FF000114081602168886862681043D4E9042335
:102000001A43104388602168E0680861206801690C
:10201000228941EA02410161204600F051FF48B99E
:1020200021680A6C22F480220A6421680A6CA36980
:102030001A430A642268FF21516208B110BD0020D2
:102040000121617710BD0000BFFF8FFF10B586B082
:10205000044618216846FEF7F5F8094920688842C9
:102060000CD102200090C00104906846FFF79EFB4F
:1020700008B1FEF715FE03490120086006B010BD47
:10208000002800403C0E474270B50446007F0B46D6
:10209000012819D00126267702206077B2B19878FE
:1020A000D97840EA014558781978000240EA413071
:1020B00005432168CA2048622168532048622046AF
:1020C00000F0DAFED0B122E0022070BD5878C106DF
:1020D00003D500F0EF000A305870D87800F0C0FE49
:1020E0000204587800F0BCFE42EA0022987800F022
:1020F000B7FE0243187842EA4035DAE70748054060
:1021000020684560204600F0DBFE00B96677226853
:10211000FF2151620021217770BD00003FFFFF00C9
:102120002DE9F0410446007F0D46012823D04FF0F1
:10213000010884F81C8002206077206800278068EE
:102140004FEA4060D2B1002800DBEF70A878297810
:1021500040EA01466878E978000240EA8150064387
:102160002168CA204862216853204862204600F056
:1021700083FEB8B12CE00220BDE8F081002800DB2E
:10218000EF70287800F06CFE0204687800F068FEBA
:1021900042EA0022A87800F063FE0243E87842EAAF
:1021A0008056DDE70D48064020680660206881689B
:1021B00021F480218160D5E90301084321688A6800
:1021C00010438860204600F07BFE08B984F81D802B
:1021D0002268FF2151622777CEE700007F7F7F00D2
:1021E00070B504460B482168C860FEF747FF0546F6
:1021F0004FF47A7607E000BFFEF740FF401BB04285
:1022000001D9032070BD2068C0688006F4D5002085
:1022100070BD00005F3F010070B5040009D0606A26
:10222000002540B125616561A56294F8510040B177
:102230000CE0012070BD6068B0F5827FF4D0E561EC
:10224000F2E784F85050204600F044F8022084F869
:1022500051002068016821F040010160A0882189B7
:1022600000F4827001F404410843A18901F4006183
:102270000843217C01F002010843217D01F00101A6
:102280000843218B01F400710843217F01F03801DC
:10229000084394F8201001F080010843218D01F4D7
:1022A0000051084321680860A069042101EA104038
:1022B00094F8241001F01001084321684860206858
:1022C000C16921F40061C1616565012084F8510094
:1022D000002070BD10B586B0044614216846FDF795
:1022E000B1FF13492068884220D1124800210268BA
:1022F00042F480520260006800F4805005900D485E
:102300001438026842F001020260006800F0010027
:102310000590A02000900220CDE901010320039048
:102320000520049069460448FEF7B2FD06B010BDD2
:102330000030014044380240000002402DE9F84FCF
:10234000984616468A460446FEF798FE814694F85B
:10235000510001281ED1BAF1000F73D0002E71D0A8
:1023600094F85000012815D0012784F850700320FC
:1023700084F8510000256565C4F830A0A686E6867D
:10238000A563A587E58765642564A068B0F5004F5F
:1023900003D00CE00220BDE8F88F2068016821F02E
:1023A000400101602068016841F4804101602068BB
:1023B0000168490603D4016841F040010160E0680A
:1023C000B0F5006F606803D048B3012E27D047E016
:1023D00008B1012E1FD1206B21680088C86006E07B
:1023E00020688168890709D5216B0988C160206B45
:1023F000801C2063E08E401EE0860CE0FEF73EFE6F
:10240000A0EB0901414503D3B8F1FF3F03D035E00C
:10241000B8F1000F32D0E08E0028E1D123E0206B2C
:1024200021680078087306E02068816889070AD56A
:10243000216B09780173206B401C2063E08E401EE5
:10244000E0860DE02BE0FEF719FEA0EB0901414507
:1024500003D3B8F1FF3F03D010E0B8F1000F0DD067
:10246000E08E0028E0D14A464146204600F03EFD7D
:1024700008B120206065A06830B109E084F851708F
:1024800084F85050032086E72068C1688068009077
:1024900084F8517004F8505F60680028F3D0012080
:1024A00079E710B5401EB0F1807F01D3012010BD47
:1024B0004FF0E02460610F21601701F0E1FA002085
:1024C000A06107202061002010BD70B5040004D079
:1024D00094F84100002510B106E0012070BD84F899
:1024E0004050204600F024F8242084F84100206861
:1024F000C16821F40051C160204601F093F82068C2
:10250000016921F4904101612068416921F02A01AB
:1025100041612068C16841F40051C16065642020B8
:1025200084F8410084F842006563002070BD00001B
:1025300010B586B0044614216846FDF783FE1449A1
:102540002068884221D113480021026842F010021D
:102550000260006800F0100005900E481438026810
:1025600042F001020260006800F0010005904FF4A3
:10257000C06000900220CDE90101032003900720F4
:10258000049069460448FEF783FC06B010BD0000C5
:102590000010014044380240000002402DE9F84399
:1025A000044690F84100984616460D46202802D071
:1025B0000220BDE8F88385B17EB10020606421204F
:1025C00084F84100FEF75AFDA6848146E684A0689F
:1025D0002027B0F5805F02D003E00120E9E7206901
:1025E00010B12E4600250EE000260CE0802120468A
:1025F00001F09EF8A8B9C6B116F8010B2168486031
:10260000E08C401EE084E08C4B464FF00002CDF899
:1026100000800028EAD14FF04001204601F088F800
:1026200040B184F841700320C3E735F8020BC0F3D2
:102630000800E3E784F841700020BAE7FEE70000F5
:1026400010B54021092000F055F86420FEF7ECFB9E
:1026500016A001F0F1F98021022000F04BF80021D2
:10266000042000F047F80021052000F043F8002185
:10267000062000F03FF85F21082000F03BF803211E
:10268000092000F037F827210A2000F033F8322122
:102690000C2000F02FF832210D2000F02BF87F21C4
:1026A000BDE81040102000F025B80000B3F5CABC0A
:1026B000BBAFB3C9B9A60D0A000000000EB50123D7
:1026C0006422CDE9001302920246AF210148FEF7D1
:1026D0009FFD0EBD080100200EB564238DE80E009D
:1026E00002460123AF210248FEF792FD0EBD000015
:1026F0000801002003B583B06423012204A98DE8FA
:102700000E0013460246AE210248FEF783FE05B0D6
:1027100000BD00000801002001684A69D24352054B
:102720000FD46FF480624A61002140F8301F2022EC
:1027300042738173026942F0040202610173012055
:1027400070470020704700002DE9F84F04460068EC
:1027500089460B9D01689846174641F480610160E7
:102760002068016841F48071016000954FF0011B01
:102770000022594620460A9B00F0E4F84FF4007A04
:1027800040B120680068C00501D5C4F840A003200E
:10279000BDE8F88F216809F0FE0008612B46284942
:1027A00020460A9A00F016F9F0BB2068416980695A
:1027B00000902A4620460A9900F0A2F940B1206C08
:1027C00004283AD12068016841F40071016034E0C6
:1027D000FEB2B8F1010F09D02168380A08612A4613
:1027E00020460A9900F08CF90028E8D1206806619B
:1027F0002A4620460A9900F083F90028DFD1206894
:10280000016841F48071016000950022594620461C
:102810000A9B00F097F80028B3D1216809F0FF0067
:1028200040F00100086100E007E02B460449204623
:102830000A9A00F0CFF80028AAD00120A8E70000EB
:10284000020001002DE9F843044600680D46DDE969
:10285000089701689846164641F4807101604B461E
:1028600000224FF001112046009700F06BF848B1AC
:1028700020680068C00502D54FF400702064032072
:10288000BDE8F883216805F0FE0008613B464A4632
:102890001549204600F09EF888B920684169806992
:1028A00000903A464946204600F02AF948B1206C8B
:1028B000042804D12068016841F4007101600120FE
:1028C000DEE7F5B2B8F1010F09D02168300A0861DE
:1028D0003A464946204600F013F90028E7D120681F
:1028E00005610020CCE700000200010070B516462B
:1028F0000D4604461EE02046FFF70EFF08B10120FA
:1029000070BD681C16D0FEF7B9FB801BA84200D82A
:1029100085B920684069C04340070BD5002044F8C2
:10292000300F20216173A073216941F020012161E2
:102930002073E4E720684069C0434007DBD40020EF
:1029400070BD00002DE9F047984617460D46044635
:10295000C1F30746DDF820902AE000BFB8F1FF3F41
:1029600026D0FEF78BFBA0EB0901414502D8B8F158
:10297000000F1DD12068012E16D0806925EA0000C5
:102980000004000C12D00020B84211D1002044F8FD
:10299000300F20216173A073216941F02001216172
:1029A00020730120BDE8F0874069E7E70120EBE7ED
:1029B0002068012E0AD0806925EA00000004000C7E
:1029C00006D00020B842C9D00020EBE74069F3E709
:1029D0000120F7E72DE9F047984616460D460446D4
:1029E0004FF000094FF0200AC1F3074723E02068A9
:1029F0004069C043400515D42068016841F4007166
:102A0000016021686FF480604861C4F8309084F8F8
:102A10003DA084F83E90216C41F00401216484F8CB
:102A20003C9021E0701C06D0FEF728FBA0EB0800CC
:102A3000B04203D816B1012F1FD021E02068012F2A
:102A400015D0806925EA00000004000C18D000BFF2
:102A500044F8309F84F80DA084F80E90216941F06D
:102A60002001216184F80C900120BDE8F0874069C5
:102A700025EA00000004000CEAD12068406901E06A
:102A80002068806925EA00000004000CAFD1ECE763
:102A90002DE9F041002590460E460446202728E007
:102AA0004069C043C0060CD454F8301B6FF01000CE
:102AB000486144F810596777A577206A2062257726
:102AC00014E0FEF7DBFAA0EB0800B04200D886B9AC
:102AD00020684069C04340060BD544F8305F6773F7
:102AE000A573206940F02000206125730120BDE816
:102AF000F08120684169C9434906D1D40020F6E736
:102B000070B516460D4604461EE02046FFF704FE4B
:102B100008B1012070BD681C16D0FEF7AFFA801B0B
:102B2000A84200D885B920684069C04300060BD58B
:102B3000002044F8300F20216173A073216941F017
:102B4000200121612073E4E720684069C04300064A
:102B5000DBD4002070BD0000002210210148FEF7E8
:102B600087BA000000000240012210210148FEF750
:102B70007FBA000000000240012211460148FEF722
:102B800077BA0000000402402DE9F04186B014211C
:102B90006846FDF757FB35484FF00008016841F0E3
:102BA00004010160016801F004010591016841F030
:102BB00080010160016801F080010591016841F028
:102BC00001010160016801F001010591016841F016
:102BD000020101600068264E00F00200059001220B
:102BE00010213046FEF744FA224F012207213846D1
:102BF000FEF73EFA01241020CDE9000402256946C3
:102C00003046CDE90245FEF743F90720CDE900043F
:102C100069463846CDE90245FEF73AF9E0020090F0
:102C20004FF40410CDE9010869463046FEF730F94B
:102C3000202000904FF48810CDE901046946384601
:102C4000FEF726F9002211461720FEF77DFD17201A
:102C5000FEF76CFD002211462820FEF775FD2820A6
:102C6000FEF764FD06B0BDE8F08100003038024098
:102C700000000240000402400D4810B50B490160FD
:102C80000C49416000214FF480428160C0E9031289
:102C900041618161C1610162FEF7F6F9002803D04C
:102CA000BDE81040FDF7FCBF10BD0000005400401F
:102CB00060000020801A06000D4810B50B49016025
:102CC0000C49416000214FF480428160C0E9031249
:102CD00041618161C1610162FEF7D6F9002803D02C
:102CE000BDE81040FDF7DCBF10BD000000580040FB
:102CF000B4000020801A06000D4810B50B49016091
:102D00000C49416000214FF480428160C0E9031208
:102D100041618161C1610162FEF7B6F9002803D00B
:102D2000BDE81040FDF7BCBF10BD0000005C0040D6
:102D300008010020801A060010B586B014216846EC
:102D4000FDF780FA1F4800241D490594C0E90014CE
:102D50007F218160FF21C0E9031444618461FFF792
:102D600027F908B1FDF79CFF8DF800408DF8014070
:102D70008DF8024003940022694612480494FFF73C
:102D8000CFF908B1FDF78CFF01208DF814008DF804
:102D900015008DF816008DF81740002205A9094886
:102DA000FFF772F908B1FDF77BFF002211460548D5
:102DB000FFF748F8002801D0FDF772FF06B010BDFC
:102DC000002800405C010020104810B50E49016049
:102DD0004FF48271416000218160C1604FF4007244
:102DE0000161C0E905121822C0E907214162816230
:102DF0000A21C162FFF710FA002803D0BDE8104095
:102E0000FDF74EBF10BD0000003001407C010020E6
:102E10000C4810B50A4901604FF4E13141600021CE
:102E200081600C22C160C0E904128161C161FFF7B9
:102E30004CFB002803D0BDE81040FDF731BF10BDAA
:102E400000100140D4010020FEE7FEE770470109B1
:102E500001EB810100F00F0000EB4100C0B27047B0
:102E6000002102E00A38C0B2491C0A28FAD2090738
:102E700040EA1160704700002DE9F0410446006807
:102E80000025C168490618D4C16841F08001C160BD
:102E9000FEF7F4F806464FF47A78042707E000BFFF
:102EA000FEF7ECF8801B404501D9677701252068C3
:102EB000C068400601D4002DF2D02846BDE8F0815C
:102EC00070B5044600680025C16821F08001C1602A
:102ED00020688068800606D42046FFF781F910B18B
:102EE000042060770125284670BD0000F8B515461E
:102EF0000E460B46009204460122022100F02CF8F7
:102F0000A0B9134813490068B0FBF1F04FF47A718F
:102F1000484300906068B0F5827F0DD133460022AF
:102F200080212046009500F017F870B1606D40F0E8
:102F3000200060650320F8BD009830B1401E00906D
:102F400020688068C0430006F6D50020F8BD000068
:102F50002800002000366E012DE9F8431E469146F8
:102F600088460446089DFEF789F8401B351AFEF78F
:102F700085F8074626480068C0F3CB3068430AE06E
:102F8000701C09D0FEF77AF8C01BA8420FD275B1A9
:102F90000098B8B3401E00902068816838EA0100AC
:102FA00033D000214945EBD10020BDE8F8832068EB
:102FB000416821F0E00141606068B0F5827F0BD18B
:102FC000A068B0F5004F02D0B0F5806F04D1206842
:102FD000016821F040010160A06AB0F5005F09D1ED
:102FE0002068016821F4005101602068016841F403
:102FF00000510160012084F85100002084F8500045
:103000000320D2E7FFE70025C6E70121CAE7000059
:103010002800002008B5010A8DF800108DF8010085
:103020000221684600F0F0F908BD2DE9FE4F161A9E
:10303000CDE900104FF000085D1A47464FF0FF3011
:10304000002E02DD4FF0010102E003D14FF000013C
:103050008B4602E08346C6F10006002D02DD4FF0EC
:10306000010002E003D14FF00000824602E08246F8
:10307000C5F10005AE4201DD344600E02C46601C7F
:103080004FF00009029017E000980C9A81B2019865
:1030900080B200F016F8B0442F44A04504DD01983A
:1030A000A8EB040858440190A74203DD00983F1B99
:1030B0005044009009F1010902998945E4DDBDE819
:1030C000FE8F10B514460B46024600F04BF9204621
:1030D000BDE81040FFF79EBF2DE9F8431D46089C50
:1030E00016460F4680460B460094FFF79EFF424669
:1030F0002B46394610460094FFF797FF32462B4681
:10310000394610460094FFF790FF2B463246194689
:1031100040460094FFF789FFBDE8F88338B5010AFF
:103120008DF800108DF80100002140F21713EF22F6
:10313000084600F017F9054D00240221684600F00A
:1031400063F9641CAC42F8D338BD0000800601006E
:1031500010B5012204211348FDF78AFFFFF704FD93
:10316000FFF70AFD00F078F9112000F027F905209B
:10317000FDF75AFE7820FDF757FE212000F01EF9DA
:103180003A2000F01BF9552000F02EF9362000F00F
:1031900015F9002000F028F9BDE81040292000F0C2
:1031A0000DB90000000402402DE9F05F0024102B4F
:1031B00013D002EBC207242B17D0302B1DD0902B3D
:1031C00054D118253026A2F13003092B1FD8284AE4
:1031D00002EB0714A4F5D8541CE0264B082503EB9A
:1031E00002141026A4F5007414E0234A0C2502EB07
:1031F00087041826A4F590640CE0204B02EB4202F1
:10320000102503EB02141826A4F5C06402E03A2A44
:1032100000D11B4C8A19521E93B24219521E92B20F
:1032200000F0A0F84FF000084FF0010B1CE000BFC9
:1032300008F007014FEAD80A00270BFA01F90DE060
:103240000AFB0570C0B2215C19EA010F01D00B988E
:1032500000E00A98FFF7DEFE7F1CFFB2AF42EFD31B
:1032600008F1010000F0FF08B045E1D3BDE8F09F90
:10327000F04D00084C730008205400087C610008E1
:103280009053000830B58BB0002217491748FEF75D
:1032900065FE154816A14378027802A800F0DCFB11
:1032A0004FF6FF740025CDE90054902302AA322185
:1032B0003C2000F02FF8002210490C48FEF72CFEAD
:1032C0000E48817800914378C2780DA102A800F0E1
:1032D000C3FBCDE90054242302AAF0213C2000F0D6
:1032E00019F80BB030BD00001C0200205C0100206A
:1032F000253032643A253032640000002C00002072
:103300003230253032642D253032642D2530326440
:10331000000000002DE9FC471E46DDE90A98150073
:103320008A4607461CD0102E07D0242E07D0302EF8
:1033300007D0902E14D118240FE008240DE00C249F
:103340000BE0102409E0CDE9009833465146384699
:10335000FFF72AFF381987B26D1C2A78002AF2D1AC
:10336000BDE8FC8738B50D46010A8DF800108DF8D0
:103370000100100A8DF802001C468DF803202A2057
:1033800000F01CF80421684600F03EF81435280AC5
:103390008DF8000014348DF80150200A8DF80200D9
:1033A0008DF803402B2000F009F80421684600F056
:1033B0002BF82C2000F002F838BD000001B5FFF713
:1033C000CBFB002201210648FDF752FEC823012253
:1033D00069460448FEF7B2FFFFF7C6FB08BD0000D0
:1033E000000402407C01002001B5FFF7B5FBFFF7A8
:1033F000C3FBC823012269460248FEF79FFFFFF77F
:10340000B3FB08BD7C01002070B50C460546FFF7F4
:10341000A3FBFFF7B1FBC823224629460348FEF76A
:103420008DFFBDE87040FFF79FBB00007C010020CE
:1034300070B5141A5D1A641C6D1C6C43049EFFF772
:1034400091FF002503E03046FFF7E4FD6D1CA54227
:10345000F9D370BD7047000010B5094C002202215D
:103460002046FDF705FE0A20FDF7DEFC01220221C1
:103470002046FDF7FDFDBDE810407820FDF7D4BCE7
:1034800000040240FEF7F8B830B593B0302168462A
:10349000FCF7D8FE14210CA8FCF7D4FE1E4800252A
:1034A000016841F080510160006800F08050119087
:1034B0001A48016841F4404101600068022400F4A8
:1034C00040401190052000904FF480300190012081
:1034D00002908005CDE906400C2008906020CDE9DF
:1034E000090404200B906846FEF7F6FA08B172B69C
:1034F000FEE70CA90F2081E831004FF48050CDE9A0
:103500000F0503210CA8FEF7FBF9002801D072B6C5
:10351000FEE713B030BD00004038024000700040AC
:103520000248016841F470010160704788ED00E0D5
:103530000EB501236422CDE90013029202462A212E
:103540000148FDF765FE0EBD600000200EB5642346
:103550008DE80E00024601232A210248FDF758FE9D
:103560000EBD0000600000207CB54FF00005040097
:103570008DF8045018D001A90220FFF7D9FF08B137
:10358000257111E09DF80400FF21B0FBF1F201FB71
:1035900012000028F4D0042269460320FFF7D6FF6A
:1035A00020B125712580658000207CBD9DF800102C
:1035B0009DF8010001F00F0140EA012020809DF8F4
:1035C00002109DF8030001F00F0140EA0120608025
:1035D000012020717CBD01680C3151E8002F22F4DC
:1035E000907241E80023002BF5D10168143151E8B5
:1035F000002F22F0010241E80023002BF5D1016BDE
:10360000012909D101680C3151E8002F22F0100284
:1036100041E80023002BF5D1202180F84210002141
:103620000163704770B5044600680169E26821F4DF
:103630004051114301612169A068E2690843616951
:10364000114308432168CA6849F20C639A43024354
:10365000CA6020684169A26921F440711143416147
:1036600031492068884202D03049884202D1FEF7B1
:10367000F1F901E0FEF7DEF9E26900231921642582
:103680003226B2F5004F626828D0A0FB0101930FEB
:103690009200FCF79FFD0146B0FBF5F06FF01802B9
:1036A000504301EB800006EB0010B0FBF5F000F09A
:1036B000F002B1FBF5F002EB0012B1FBF5F06FF098
:1036C0001803584301EB800006EB0010B0FBF5F047
:1036D00000F00F0021681044886070BDA0FB01015C
:1036E00092185B41FCF776FD0146B0FBF5F0020154
:1036F000B1FBF5F06FF01803584301EB800006EBC7
:10370000C000B0FBF5F000F0F80002EB4002B1FBA6
:10371000F5F0584301EB800006EBC000B0FBF5F07C
:1037200000F00700D6E7000000100140001401403F
:103730002DE9F843984617460D460446089E24E0B6
:10374000701C22D0FDF79AFCA0EB0800B0421AD8FA
:10375000CEB12068C168490717D5802D15D0402DFE
:1037600013D00168C94309070FD4016800254068D8
:1037700000902046FFF72FFF0820606484F8405037
:103780000120BDE8F8830320FBE72068006835EAE4
:10379000000004D00020B842D2D00020F1E7012080
:1037A000F9E7000010B5FDF769FC0149086110BD9B
:1037B0003000002010B5002204210348FDF758FC1A
:1037C00002490020487010BD000402403000002073
:1037D00010B5012204210548FDF74AFC044C0120E4
:1037E0006070FDF74BFC206110BD0000000402403A
:1037F00030000020FEE700009FED071B10B553ECE2
:10380000112B51EC100BFCF728FDBDE8104041ECEA
:10381000100B00F005B80000182D4454FB21F93FAF
:1038200070B52DED0C8BB0EE408AF0EE608A9FED06
:103830006F9B9FED70AB00259FED700B51EC180B4B
:1038400053EC102BFCF7D4FE06D2012551EC180BDB
:1038500081F0004141EC180B9FED6A1BB0EE480A65
:10386000F0EE680A00F0F2FEB0EE408AF0EE608AF8
:1038700053EC192B51EC180BFCF7D2FE0AD2002D99
:103880007ED0002553EC192B51EC180BFCF786FD6C
:1038900041EC180B9FED5D0B51EC180B53EC102B0A
:1038A000FCF7BEFE07D253EC192B51EC180BFCF7BA
:1038B00078FD41EC180B53EC1A2B51EC180BFCF76C
:1038C000E5FDFCF763FE0446FCF74FFE53EC1A2BB4
:1038D000FCF76AFD53EC182BFCF763FD41EC180B69
:1038E0009FED4C0B53EC102BFCF79AFE08D253ECD7
:1038F0001A2B51EC180B641CFCF750FD41EC180B13
:10390000464853EC182B00EBC40191ED009BC4F129
:10391000640100EBC10090ED00AB51EC180BFCF71B
:1039200043FD0E4646EC100B044653EC182B51ECAD
:10393000100BFCF739FD53EC182BFCF735FD53EC5D
:10394000192BFCF731FD9FED361B53EC112BFCF7C7
:103950009DFD46EC104B41EC1B0B53EC182B51EC2E
:10396000100BFCF721FD53EC1A2BFCF71DFD9FED0E
:103970002E1B53EC112BFCF789FD41EC1C0B00E0D6
:1039800032E046EC104B53EC192B51EC100BFCF7CA
:103990000BFD9FED271B53EC112BFCF705FD41ECB4
:1039A0001D0B53EC1A2B51EC180BFCF7FDFC53ECE0
:1039B000192BFCF752FC53EC1D2BFCF7EFFC53ECDE
:1039C0001C2BFCF7EBFC53EC1B2BFCF746FC41ECEF
:1039D000100B002D05D051EC100B81F0004141EC93
:1039E000100BBDEC0C8B70BD01254BE7182D44541A
:1039F000FB2109401A271792BF15903F00000000D5
:103A000000000000182D4454FB211940182D445487
:103A1000FB21F93F1A271792BF15803F4079000814
:103A200000000000000038400000000000001840C6
:103A3000000000000000E03F0FB4054B10B503A9E3
:103A4000044A029800F020F910BC5DF814FB000055
:103A5000C9430008580000200FB4084B10B504A952
:103A600002AA039800F010F9044602A9002000F011
:103A70008EFC204610BC5DF814FB00008F4300084C
:103A80000907090E002804DB00F1E02080F800148B
:103A9000704700F00F0000F1E02080F8141D70471F
:103AA00010B52DED028BB1EEC08A18EE100A20F091
:103AB0000040C0F1FF40C00F0AD010EE100A20F005
:103AC0000040C0F1FF40C00F04BF012000F014F817
:103AD000B0EE480ABDEC028B10BD02E008C8121F10
:103AE00008C1002AFAD170477047002001E001C1E7
:103AF000121F002AFBD1704701490860704700007F
:103B00005C0000202DE9FF5F82B00021DDE9043078
:103B1000020DDDF840B0034318D044F61050A2F275
:103B2000FF3242431514119801281FD0A5EB0B005A
:103B3000401C5FEA000A4FF000064E4FDFF8389154
:103B4000B046504615D5CAF1000413E0119801247F
:103B50004AA3012801D16FEA0B010298119AC0E92A
:103B60000031C0E9024206B0BDE8F09FCBF1000091
:103B7000DFE704460021404A491842EB0450CDE9F2
:103B8000001012E0E00707D032463B464046494667
:103B9000FCF70AFC8046894632463B4610461946E9
:103BA000FCF702FC06460F466410002CEAD1DDE962
:103BB0000401DDE90023BAF1000F06DAFCF7F4FB9B
:103BC00042464B46FCF7F0FB05E0FCF75FFC424643
:103BD0004B46FCF75BFC04460E460022284BFCF7E4
:103BE0001FFD03D84FF0FF30014607E00022254BB0
:103BF00020463146FCF731FBFCF721FE102409E09A
:103C0000002C0ADB0A220023FCF7E4FA039B303283
:103C10001A55641E50EA0102F2D1641C039AC4F1E1
:103C200011031444119A012A03D0012208430DD133
:103C30000AE0084304D000204FF0110B119072E706
:103C4000A3EB0B056D1E0DE05B4504DD4FF000029C
:103C500005F1010504E003DA4FF00002A5F10105CA
:103C6000002AECD002981199C0E90231C0E9004560
:103C700079E70000000014400000F03F3000000031
:103C80000000F0430000E03F2DE9FF4F95B09A4659
:103C9000884606460025EEE1252877D100242746F0
:103CA000F94A0121039400E0044316F8013F203B48
:103CB00001FA03F01042F7D130782A2811D06FF0C2
:103CC0002F033078A0F13002092A16D8039A44F065
:103CD000020402EB820203EB42021044761C0390C2
:103CE000EFE758F8042B0392002A03DA504244F419
:103CF0000054039044F00204761C30782E2816D12C
:103D000016F8010F44F004042A280DD06FF02F029A
:103D10003078A0F13003092B09D807EB870302EBB9
:103D20004303C718761CF3E758F8047B761C3078F9
:103D30006C280FD006DC4C2817D068280DD06A28D4
:103D400014D104E0742810D07A280FD10DE044F487
:103D500000140AE044F4801401E044F44014727842
:103D6000824202D104F58014761C761C30786628D5
:103D70000BD013DC582877D009DC002875D04528F3
:103D8000F6D04628F4D047281AD193E118E06328EA
:103D900035D0642879D0652812D18BE1702873D092
:103DA00008DC6728F1D069286FD06E280DD06F2805
:103DB00006D1ACE073282CD0752874D0782853D065
:103DC0005246179990476D1C54E1C4F302500228E3
:103DD00009D003280DD0D8F8001004280DD00D60AC
:103DE00008F1040846E1D8F80010EA17C1E90052CA
:103DF000F6E7D8F800100D80F2E70D70F0E718F83C
:103E0000041B8DF8001000208DF80100EB46012006
:103E100003E058F804BB4FF0FF3061074FF000019A
:103E200002D40DE009F101018946B9420FDA81455A
:103E3000F8DB1BF809100029F4D108E009F10101B1
:103E400089468142FADB1BF809100029F6D1039854
:103E50005346A0EB090721463846179A00F080FA2E
:103E6000284400EB090507E044E008E10DE01BF8F9
:103E7000010B524617999047B9F10109F7D2534601
:103E800021463846179AF2E039E00A21C4F302527B
:103E90004FF0000B0091022A06D058F8040BC1170E
:103EA000032A09D00AE023E008F1070020F0070206
:103EB000F2E80201904605E000B2C117042A01D1E0
:103EC00040B2C117002906DA0A460021404261EBE0
:103ED00002012D2202E0220504D52B228DF80420B8
:103EE000012203E0E20701D02022F7E7914657E0E4
:103EF0000A2100E010214FF0000B00910BE010218F
:103F00004FF0000B44F004040827009103E0082060
:103F10004FF0000B0090C4F30252022A05D058F86B
:103F2000040B0021032A08D008E008F1070020F064
:103F30000702F2E80201904603E080B2042A00D1B1
:103F4000C0B24FF0000922072AD53278702A07D074
:103F5000DDF800C08CF0100C5CEA0B0C05D00EE014
:103F600040228DF80420012208E050EA010306D027
:103F700030238DF804308DF8052002229146009BF5
:103F800083F0080353EA0B030AD150EA010201D17E
:103F9000620705D530228DF804204FF001097F1EFD
:103FA0003278582A04D039A20C920CAA02920BE063
:103FB0003BA2F9E75B46009AFCF70CF90C9B9B5C73
:103FC000029A521E0292137050EA0102F2D1029834
:103FD00004A9081A00F1200B600702D524F48034EC
:103FE00000E001275F4502DDA7EB0B0000E00020A9
:103FF00000EB0B01009003984944401A0390E00342
:1040000006D453462146179A039800F0A9F90544AF
:10401000002706E001A85246C05D179990476D1C25
:104020007F1C4F45F6DBE0030CD553462146179A1B
:10403000039800F095F9054404E0302052461799A2
:1040400090476D1C0099481E00900029F5DC08E09F
:104050000298029952460078491C0291179990479C
:104060006D1CBBF10001ABF1010BF1DC5BE100F079
:1040700065F90544761C307800287FF40DAE19B040
:104080002846BDE8F08F00000928010030313233A6
:104090003435363738396162636465660000000084
:1040A000303132333435363738394142434445466E
:1040B00000000000600700D4062708F1070020F088
:1040C0000700F0E80223804603F0004C5FEA0C0092
:1040D00001D097A009E0200501D596A005E0E007F2
:1040E00001D095A001E0AFF24C001390307823F09E
:1040F000004365280CD006DC452809D046281DD091
:1041000047287FD13BE0662818D067287AD136E06F
:104110000021112F01DB112000E0781CCDE9000106
:1041200004A90CA8FFF7EEFCDDE90D010C9A4FF095
:10413000000B07F10109109200914EE04FF0004092
:104140000097CDE9011004A90CA8FFF7DBFCDDE91D
:104150000D020C9B0F994FF0000B914610930092AB
:1041600011B9791C00EB0109B7EB090003D4C0F1C8
:10417000FF3B07F10109A9EB0700019042E0012F85
:1041800000DA01270021112F01DD112000E038465F
:10419000CDE9000104A90CA8FFF7B4FCDDE90D018D
:1041A0000C9A00914FF0000BB946109221070FD4E2
:1041B000009A4A4503DA914601E0A9F10109B9F1F3
:1041C000010F05DD109AA9F10101515C3029F4D0ED
:1041D000B84202DA10F1040F03DA0121CDE901102F
:1041E00010E0002803DC8344A9EB000102E0411C3D
:1041F000494500DD8946A0EB0B00401C01904FF0C3
:1042000000400290200705D40198484502DB4FF09A
:10421000FF30019000208DF84B0002980DF14B0704
:10422000B0F1004F25D002200C902B200D90029869
:1042300000280CDA404202902D200D9007E00A2160
:104240000298FCF721FA3031029007F8011D0C9911
:10425000481E0C900029F2DC02980028EFD1791E4C
:104260000D980870307800F0200040F0450007F805
:10427000020D11A8C01BC01D02901398007800B158
:10428000012000EB0901019801EBE0710298014463
:104290000398401A401E0390E00306D4534621467B
:1042A000179A039800F05CF805441398007818B149
:1042B0005246179990476D1CE00323D5534621467B
:1042C000179A039800F04CF805441BE0BBF1000F6F
:1042D00007DB0098584504DD1098179910F80B007B
:1042E00001E0179930205246904701980BF1010BDD
:1042F000401E05F10105019004D12E205246179968
:1043000090476D1CB9F10001A9F10109DEDC05E05F
:1043100017F8010B5246179990476D1C0299481ED9
:1043200002900029F4DC53462146179A03989EE632
:104330002D0000002B000000200000002DE9F041BE
:10434000044600251E461746880404D405E0394675
:104350002020B0476D1C641EF9D52846BDE8F081C9
:104360002DE9F041044600251E469046C80301D5BC
:10437000302700E02027880404D505E04146384670
:10438000B0476D1C641EF9D52846BDE8F0810A6867
:10439000531C0B601070704710B503460522104681
:1043A00093ED0A0A0DE000BF03EBC204D4ED000A4E
:1043B000F4EEC00AF1EE10FA02DDB0EE600A10462B
:1043C000521C8A42F0DB10BD13B54FF0FF330122BF
:1043D00069460248FEF7E2F800981CBDD4010020AF
:1043E000FDF752F9FFF750F8FEF7CEFBFEF7ECFCB5
:1043F000FEF7A2FCFEF740FCFEF70AFDFEF75CFCB0
:10440000FEF77AFCFEF7A4FE00F09CF8012000F015
:10441000D3FAFCF73FFA314D314E324CFCF7B8FA83
:104420002078012836D1002020702E480830FFF770
:104430009BF83078E8B3FFF7B5F9287804282948C5
:1044400000F1080009D000F0D1FA48B103280ED0DD
:10445000042810D0022816D01CE000F0EBF919E077
:10446000204808304188008800F044FC12E0287899
:1044700001280DD00EE0287802280BD15FF0010052
:1044800000F09AFA06E02878012803D0022801D02B
:104490000220F5E73078012817D1FCF7EFFD6168BD
:1044A000401AC82804D3FCF7E9FD606000F012FB55
:1044B00000E00EE0FCF7E2FD0B490968401A42F209
:1044C0001071884201D9FFF775F900F067F80028EC
:1044D000A4D0FFF77DF9FFF765F99FE730000020D2
:1044E0003100002000000020400000207CB5144670
:1044F0000D460646062269463B2000F041F8BDF80D
:10450000000040BA3080BDF8020040BA2880BDF8F3
:10451000040040BA20807CBD7CB514460D4606469A
:1045200006226946432000F02BF8BDF8000040BA8F
:104530003080BDF8020040BA2880BDF8040040BABF
:1045400020807CBD10B501216B2000F053F80021C4
:104550006C2000F04FF80921192000F04BF80621DB
:104560001A2000F047F818211B2000F043F8002122
:104570001C2000F03FF8BDE810406420FCF754BC5C
:104580000EB564238DE80E0002460123D0210248B7
:10459000FCF73EFE0EBD0000B4000020FEB502AAEE
:1045A00001A96846FFF7A2FF1148BDF80450BDF805
:1045B000006042880188AA1A13B2BDF808408288B8
:1045C00006804580711AA21A848009B241F28830AF
:1045D0000C1842F2117112B28C4205D203448B4284
:1045E00002D21044884201D30120FEBD0020FEBD4E
:1045F0004400002003B583B06423012204A98DE8A0
:104600000E0013460246D0210248FCF703FF05B016
:1046100000BD0000B40000201CB510EE904A8DEDE6
:10462000000B51EC100BFBF7B1FF00EE100A002C51
:10463000B8EEC00A03DAF7EE000A30EE600A10EEB8
:10464000100AFBF7C2FF41EC100B1CBD10B52DED9D
:10465000088BB0EE418AF0EE618AB0EE40AAF0EE2F
:1046600060AA9FED24BB51EC180B53EC1B2BFBF7FE
:10467000BFFF06D1B0EE4B0AF0EE6B0ABDEC088B23
:1046800010BD53EC182B51EC1A0BFBF7FFFE41EC5D
:10469000100BFFF7C1FF53EC182B51EC100BFBF77D
:1046A00083FE53EC1A2BFBF77CFE41EC190B53EC09
:1046B0001B2B51EC1A0BFBF79BFF01D2012400E0EE
:1046C000002453EC1B2B51EC180BFBF791FF01D28C
:1046D000012000E00020844207D053EC182B51EC5D
:1046E000190BFBF75BFE41EC190BB0EE490AF0EE3B
:1046F000690AC3E700000000000000007CB500204C
:10470000FEF70CFD4FF6FF75002430230BA21E218F
:104710004820CDE90045FEF7FDFD302309A27821B0
:104720001420CDE90045FEF7F5FD302307A2A021B6
:104730001420CDE90045FEF7EDFD7CBD4845414C18
:104740005448000048454152543A000053504F32FB
:104750003A00000010B50020FEF7E0FCBDE8104074
:10476000FEF790BD7CB50020FEF7D8FC4FF6FF7534
:104770000024302324A214215820CDE90045FEF75F
:10478000C9FDCDE900546423DC223221142000F05D
:10479000D3F8CDE900549B23DC226921142000F0DA
:1047A000CBF8CDE90054D223DC22A021142000F064
:1047B000C3F8CDE9005440F20913DC22D7211420BC
:1047C00000F0BAF8302312A240214820CDE900457C
:1047D000FEF7A0FD302310A277215820CDE9004537
:1047E000FEF798FD30230EA2AE212820CDE900452A
:1047F000FEF790FD30230DA2E5214020CDE90045D4
:10480000FEF788FD7CBD00004D454E5500000000C0
:104810004845414C544800004452415700000000B4
:10482000544F554348205445535400004D5055367D
:10483000303530002DE9FC41044600790026224D38
:10484000012802D0AE70BDE8FC814FF487775A2072
:10485000CDE9000761882088F0230A2200F09CF847
:1048600001281AD0EF20CDE9000761882088F023C5
:104870009F2200F091F8012815D0A8784FF6FF721A
:10488000B0B1009263882288E988A888FEF7CDFB42
:104890002088A8806088E880D5E7AE70BDE8FC413C
:1048A000022000F089B8AE70BDE8FC4100F00EB8FF
:1048B0000120A8702088A8806188E98002B0BDE846
:1048C000F041FEF7FEBB0000300000207CB5002068
:1048D000FEF724FC00244FF6FF75CDE900544FF499
:1048E000877633465A22F0210A2000F025F8CDE9D8
:1048F00000543346EF22F0219F2000F01DF84FF4C2
:104900007840CDE90040242307A2F3211A20FEF7C6
:1049100001FD4FF4FC60CDE90040242304A2F32103
:10492000AE20FEF7F7FC7CBD4241434B0000000087
:10493000434C4541520000002DE9F8430746DDE9AC
:10494000080800901C4615460E463846FEF7C4FB84
:10495000641E6D1E761C7F1CA3B2AAB2B1B2B8B29F
:10496000CDF80080FEF764FDBDE8F8831CB500209B
:10497000FEF7D4FB4FF6FF710020CDE90001302394
:1049800002A21E212820FEF7C5FC1CBD544F554332
:10499000482054455354000030B59042DDE903549B
:1049A00007D3A84205D8994203D3A14201D80120D8
:1049B00030BD002030BD00000B490728087011D21F
:1049C000DFE800F010040E06080A0C00FFF7C2BE74
:1049D00000F07CB9FFF77ABFFFF790BEFFF7C6BFC4
:1049E000FFF7C0BE704700003000002070B50279AC
:1049F0002B49012A01D052B150E0CA78002A4DD18A
:104A00000122CA7002880A814088488146E0CA783B
:104A1000012A43D10022CA7002888A814088C88155
:104A20000B894C89D21A12B2001B02F11D0500B28B
:104A30003A2D05D800F11D053A2D01D8002070BD92
:104A4000002A01DB154600E05542061E00DA464208
:104A5000B5420BDD002A04DD12A0FEF7EDFF0220B7
:104A600070BD13A0FEF7E8FF012070BD002801DB38
:104A7000054600E04542002A00DA524295420BDD2D
:104A8000002804DD0DA0FEF7D7FF042070BD0EA0A6
:104A9000FEF7D2FF032070BD8B81CC81052070BD55
:104AA00030000020D3D2BBACD2BBB4CE000000009B
:104AB000D7F3BBACD2BBB4CE00000000CFC2BBACBE
:104AC000D2BBB4CE00000000C9CFBBACD2BBB4CEC9
:104AD0000000000030B55D4800242DED028B83B04E
:104AE0000078062870D2DFE800F0AD03AD0AAD70A3
:104AF00003B0BDEC028BBDE83040FEF7C3BB544AA7
:104B000054495548FFF7F2FC544A55495548FFF7B8
:104B100003FD514854A1B0F900205548FEF79CFF11
:104B20004FF6FF752423524A96211E20CDE90045F9
:104B3000FEF7F0FB47484FA1B0F900204C48FEF7C4
:104B40008BFF24234A4AB4211E20CDE90045FEF7FD
:104B5000E1FB3F4849A1B0F900204548FEF77CFF42
:104B60002423434AD2211E20CDE90045FEF7D2FB83
:104B70003C4844A1B0F900203D48FEF76DFF962166
:104B800024233B4A0846CDE90045FEF7C3FB3448E1
:104B90003EA1B0F900203648FEF75EFF2423344AD8
:104BA000B4219620CDE90045FEF7B4FB2B4839A18E
:104BB000B0F900202E48FEF74FFF2423D2212C4AC3
:104BC0009620CDE900453BE03CE0FCF721F90546A5
:104BD000FCF724F9B0EE408A002D05DD2A462FA10E
:104BE0002348FEF739FF03E02FA12148FEF734FFE9
:104BF0004FF4FC60CDE90040782130231C4A084680
:104C0000FEF788FBB5EEC08AF1EE10FA0CDD18EE67
:104C1000100AFBF7DAFC41EC100B26A153EC102B29
:104C20001348FEF719FF03E025A11148FEF714FF12
:104C300040F2FF70CDE9004030230D4AA0217820DA
:104C4000FEF768FB03B0BDEC028B30BD30000020E6
:104C500012000020100000200E000020180000208C
:104C60001600002014000020415820252D36640035
:104C700030020020415920252D366400415A20255C
:104C80002D366400475820252D36640047592025CD
:104C90002D366400475A20252D36640025336420C4
:104CA00042504D20202000002D2D2D2042504D201F
:104CB0002020000025352E326620252520200000EA
:104CC0002D2D2E2D2D202525202000001CB5002067
:104CD000FEF724FA4FF6FF710020CDE900013023E2
:104CE00002A21E214020FEF715FB1CBD4D5055367B
:104CF0003035300070B5064632488AB00D4600782F
:104D0000072822D2DFE800F02121232121210400FD
:104D100032462DA102A8FEF79FFE4FF6FF74002633
:104D2000CDE90064302302AA50214620FEF7F2FAB2
:104D30002A4627A102A8FEF78FFECDE900643023A2
:104D400002AA6E214620FEF7E5FA0AB070BD642083
:104D5000DC24CDE900403223142229463046FFF7F7
:104D60001BFE012827D09B20CDE900406923142297
:104D700029463046FFF710FE01281ED0D220CDE98B
:104D80000040A023142229463046FFF705FE0128E3
:104D900015D040F20910CDE90040D723142229464E
:104DA0003046FFF7F9FD0128CFD103200AB0BDE856
:104DB0007040FFF701BE0520F8E70420F6E7062063
:104DC000F4E7000030000020583A252D336400003D
:104DD000593A252D33640000000000000000000057
:104DE0000102030406070809000000000102030491
:104DF00000000000000000000000000000000000B3
:104E0000000000000000000000000080E0F03C0E08
:104E100006030101010103020E3CF8E080000000DE
:104E20000000F8FFFF030000000000000000000089
:104E3000000003FFFFFC000000003FFFFF800000B8
:104E40000000000000000000000080FFFF3F0000A5
:104E5000000000030F1F7860C08000000000808009
:104E6000E0783F0F03000000000000000000000099
:104E7000000101010101010000000000000000002C
:104E80000000000000000000000000000000000022
:104E90000000000000000000000000000000080802
:104EA000080808FCFEFF00000000000000000000F1
:104EB0000000000000000000000000FFFFFF0000F5
:104EC00000000000000000000000000000000000E2
:104ED000000000FFFFFF00000000000000000000D5
:104EE0000000000000000000000080FFFFFF8000C5
:104EF00000000000000000000000000000000101B0
:104F00000101010101010101010101000000000096
:104F10000000000000000000000000000000000091
:104F20000000000000000000000000E0F8FC0402A7
:104F30000201010101010303061EFCF8E00000006C
:104F400000000003070707000000000000000080C9
:104F5000E0F87F1F07000000000000000000008054
:104F6000C0E070381C0E07030100000000000000C4
:104F70000000E0F0F8DEC7C3C1C0C0C0C0C0C0C000
:104F8000C0E0E0F80E000000000001010101010195
:104F90000101010101010101010101010000000005
:104FA0000000000000000000000000000000000001
:104FB000000000000000000000000000F0F8C40243
:104FC00002010101010103061EFCF8E000000000DF
:104FD00000000000000101000080808080C040606F
:104FE000381F0F0300000000000000000000000058
:104FF0000000000000010103060EFCF8E0000000C4
:105000000000001E3F7FCE80000000000000808076
:10501000C0703F1F070000000000000000000000FB
:105020000101010101010100000000000000000079
:105030000000000000000000000000000000000070
:105040000000000000000000000000000000000060
:10505000000000C03018FEFFFF000000000000004C
:10506000000000000000C060180E03000000FFFFF9
:10507000FF00000000000000000060785C47414035
:10508000404040404040FFFFFF4040404040000063
:105090000000000000000000000000000080FFFF92
:1050A000FF80000000000000000000000000000081
:1050B00000010101010101010101010101010000E3
:1050C00000000000000000000000000000000000E0
:1050D00000000000000000000000000000FF0707C3
:1050E000070707070707070707070707000000006C
:1050F00000000000FFFF80C0603030303030307082
:10510000E0C0C00000000000000000008383010038
:1051100000000000000000000007FFFFFC0000008E
:105120000000000F3F7FC7808000000000008080EB
:10513000E0783F1F030000000000000000000000B6
:105140000101010101010100000000000000000058
:10515000000000000000000000000000000000004F
:10516000000000000000000000000000C0F0380C4B
:105170000602020101010101013E3C38000000006D
:105180000000F0FFFF0380C06060303030303070CE
:1051900060E0C080000000000000FFFFFF0701008A
:1051A0000000000000000000000003FFFFFC000002
:1051B000000000071F3E70E0C0800000000000807B
:1051C00080C0783F1F0300000000000000000000C6
:1051D00000010101010101010000000000000000C8
:1051E00000000000000000000000000000000000BF
:1051F0000000000000000000000000E07F1F0F071B
:105200000707070707070707C7671F0F0300000007
:10521000000000000000000000000000C0F03C079B
:10522000010000000000000000000000000000007D
:1052300000E0F8FF0F000000000000000000000088
:105240000000000000000000FEFFFFFF0000000063
:10525000000000000000000000000000000000004E
:10526000000101000000000000000000000000003C
:10527000000000000000000000000000000000002E
:105280000000000000000000000000E0F8FC1E0626
:105290000201010101010103061EFCF8E00000000B
:1052A000000000070F3F3E78F0F0E0C0C080C06013
:1052B00070381F0F030000000000C0F0FC3E070321
:1052C000010001010303070F1E7EFCF0C000000077
:1052D0000000071F3F70C0808000000000000080B9
:1052E000C0703F1F07000000000000000000000029
:1052F00001010101010101000000000000000000A7
:10530000000000000000000000000000000000009D
:105310000000000000000000000080F0F83C0E02D9
:1053200003010101010102060C78F0C00000000039
:1053300000007FFFFFC00000000000000000000030
:1053400080C0FFFFFE00000000000003070F0E1CDE
:105350001C181818180C0C0603E0FFFF1F000000B3
:105360000000000078F8F8000000000080C0E07045
:105370003C1F0701000000000000000000000001C9
:105380000101010101000000000000000000000018
:10539000000000000000000000000000000000000D
:1053A00000000000000000000000000000000000FD
:1053B00000000000000000000000000000000000ED
:1053C000000000000000000000387C7C7C380000F9
:1053D00000000000000000000000000000000000CD
:1053E00000000000000000000000000000000000BD
:1053F000000000000000000000E0F0F0F0E000001D
:10540000000000000000000000000000000000009C
:105410000000010101000000000000000000000089
:10542000000000000000000000000000000000007C
:10543000000000000000000000000000000000006C
:10544000000000000000000000F0F000000000007C
:105450000000000000770F000000000000000000C6
:10546000001C1C000000000000008060301C8C60EC
:10547000301C0C00000000000000000000000000D4
:10548000000000000000000000000000000000001C
:10549000F000000000F00000008383FF838383831B
:1054A000FB87830000011F01010101011F010100B1
:1054B000000080C06020F820E0C00000000003076A
:1054C0000C18FF71E18100000000070F12107F101F
:1054D0000F070000C0301030C00000C030000000D6
:1054E00007181018CF38C6311030C0000000180758
:1054F00000000718101807000000E0F010F0E000AE
:1055000000000000C0E0173FF8C70308F8080800D3
:10551000070F181010130F0E1910100C00008C4CF0
:105520003800000000000000000000000000000043
:10553000000000000000000000000000000000006B
:10554000000000000000806010080400000000005F
:1055500000FE010000000000000000000000030C3D
:1055600010204000000408106080000000000000CF
:10557000000000000001FE000000000000402010BC
:105580000C03000000000000000000000000C080CC
:1055900000000000006666243810FF183C24666690
:1055A00000000000000003000000000000000000F8
:1055B0000000800000000000001010101010FF100C
:1055C0001010101000000000000003000000000098
:1055D00000000000000000000000000000000000CB
:1055E000000000000000000000008C4C38000000AB
:1055F00000000000000000000000000000000000AB
:1056000000101010101010101010100000000000FA
:10561000000000000000000000000000000000008A
:10562000000000000000000000000000000000007A
:1056300000001C1C1C000000000000000000000016
:1056400000000000E0380C000000000080701C0327
:10565000000000000060380E0100000000000000A3
:10566000000080C060202060C080000000FEFF01BC
:105670000000000001FFFE000001070E18101018C6
:105680000E0701000000404040C0E00000000000A4
:105690000000000000FFFF000000000000001010EC
:1056A000101F1F10101000000080402020202060DC
:1056B000C08000000003030000C060301F0700002E
:1056C00000181C1211101010101E000000C0C02085
:1056D000202060C080000000000101001010182F81
:1056E000E7800000000E0E10101010180F070000C9
:1056F00000000000000080E0E000000000C0A09872
:10570000848380FFFF808080000000000010101F55
:105710001F1010000000E02020202020202000008A
:1057200000003F1008080818F0E0000000070B1008
:105730001010101C0F030000000080C0402020202B
:10574000E0C0000000FCFF211008080818F0E0008D
:105750000001070C18101010080F03000000C060B3
:105760002020202020E06000000001000000E01860
:105770000700000000000000001F1F0000000000E4
:105780000080C0602020202060C080000083CF6C9B
:105790001810303068CF830000070F081010101069
:1057A000180F07000000C0C020202020C08000008B
:1057B000001F3F604040402010FFFE0000000C1C16
:1057C000101010080F03000000000000000000008F
:1057D0000000000000000000001C1C1C0000000075
:1057E00000000000001C1C1C000000000000000065
:1057F000000000000000000000000000000C0C0091
:10580000000000000000000000D838000000000088
:105810000000000000000080402010000000102860
:1058200044820100000000000000000000000102AE
:10583000040810000000000000000000000000004C
:1058400000444444444444444444440000000000B0
:105850000000000000000000000010204080000058
:105860000000000000000000000001824428100039
:105870000000100804020100000000000000804049
:10588000402020202060C080000007060000E010BB
:1058900018080F0700000000001C1C1C000000007E
:1058A0000000C0E020109090A060800000FEFF008B
:1058B000F8FF03FC07807F000000070E181111118C
:1058C000090C0200000000008060E0000000000001
:1058D000000080784740415FF0800000101C1310EA
:1058E00000000000111F18100020E0E020202060C0
:1058F000C0C000000000FFFF101010182FE780004C
:1059000000101F1F10101010180F0700000080C09B
:105910004020202060E0800000FCFF01000000002B
:10592000000003000001070E18101010080C0300FF
:105930002020E0E020202040C08000000000FFFF89
:105940000000000001FFFE0010101F1F10101008C3
:105950000E07010020E0E020202020206060800071
:1059600000FFFF10101010FC00000100101F1F109E
:10597000101010101018060020E0E0202020202039
:105980006060800000FFFF10101010FC000001009C
:10599000101F1F101000000000000000000080C059
:1059A000602020204080000000FCFF0100004040FB
:1059B000C0C340400001070E181010100F0F000068
:1059C00020E0E0200000000020E0E02000FFFF10C9
:1059D0001010101010FFFF00101F1F10000000001B
:1059E000101F1F100000202020E0E02020200000D9
:1059F0000000000000FFFF00000000000000101089
:105A0000101F1F1010100000000000202020E0E0F8
:105A100020202000000000000000FFFF0000000028
:105A20000060E08080C07F3F0000000020E0E020B8
:105A30000000A0E06020000000FFFF300C3AE18091
:105A400000000000101F1F10000000131E1810009F
:105A500020E0E020200000000000000000FFFF0028
:105A60000000000000000000101F1F101010101098
:105A70001018060020E0E000000000C0E0E0200078
:105A800000FF0FFFE0807C03FFFF0000101F1000ED
:105A90000F0700101F1F10000020E0E08000002012
:105AA00020E020200000FF01071E78C000FF00005A
:105AB00010101F10100000030F1F0000000080C016
:105AC00060202060C080000000FEFF010000000098
:105AD00000FFFE000001070E181010180C0701004F
