:020000040800F2
:10000000F0050020B1010008BF210008951A000882
:10001000BD210008E90200086D2B00080000000067
:10002000000000000000000000000000C5270008DC
:10003000EB02000800000000C1210008F5270008BD
:10004000CB010008CB010008CB010008CB01000860
:10005000CB010008CB010008CB010008CB01000850
:10006000CB010008CB010008CB010008CB01000840
:10007000CB010008CB010008CB010008CB01000830
:10008000CB010008CB010008CB01000800000000F4
:10009000000000000000000000000000ED02000869
:1000A000CB010008CB010008CB010008CB01000800
:1000B000CB010008CB010008CB010008CB010008F0
:1000C000CB010008CB010008CB010008CB010008E0
:1000D000CB010008CB010008CB01000800000000A4
:1000E000CB010008CB010008CB0100080000000094
:1000F000000000000000000000000000CB0100082C
:1001000000000000CB010008CB010008CB01000873
:1001100000000000000000000000000000000000DF
:10012000CB010008CB010008CB010008CB0100087F
:10013000CB010008000000000000000000000000EB
:10014000000000000000000000000000CB010008DB
:10015000CB010008CB010008CB010008CB0100084F
:10016000CB010008CB0100080000000000000000E7
:10017000000000000000000000000000000000007F
:1001800000000000CB01000800000000000000009B
:10019000CB010008CB010008DFF810D000F092F886
:1001A000004800475D2F0008AFF30080F0050020F5
:1001B0000648804706480047FEE7FEE7FEE7FEE701
:1001C000FEE7FEE7FEE7FEE7FEE7FEE79128000810
:1001D000990100082DE9F05F0546002092469B46F4
:1001E00088460646814640241BE02846414647464D
:1001F000224600F057F853465A46C01A914110D390
:1002000011461846224600F03EF82D1A67EB010809
:100210004F4622460120002100F035F817EB000977
:100220004E41201EA4F10104DFDC484631462A4637
:100230004346BDE8F09FD2B201E000F8012B491E11
:10024000FBD270470022F6E710B513460A46044673
:100250001946FFF7F0FF204610BD30B50B460146AA
:1002600000202022012409E021FA02F59D4205D355
:1002700003FA02F5491B04FA02F52844151EA2F1FF
:100280000102F1DC30BD202A04DB203A00FA02F141
:10029000002070479140C2F1200320FA03F3194374
:1002A00090407047202A04DB203A21FA02F0002116
:1002B000704721FA02F3D040C2F120029140084376
:1002C00019467047064C074D06E0E06840F0010310
:1002D00094E8070098471034AC42F6D3FFF760FF6C
:1002E0003C6300085C630008FEE77047202000F0D4
:1002F0001DB872B6FEE7000070B5044600F018F9AC
:100300000546601C02D004480078044400F010F94F
:10031000401BA042FAD370BD1C000020202802D14F
:10032000014901200870704700000020044910B501
:100330000A68024202D00860FFF7F0FF10BD00001B
:10034000143C01402DE9F84FDFF8B8A10022012448
:1003500003254FF00F090AF1040BAAF1040E00BFA8
:100360000B6804FA02F63340B34273D10F7907F0F9
:100370000307012F01D0022F16D187684FEA4208E8
:1003800005FA08FC27EA0C07D1F80CC00CFA08FCA7
:100390004CEA070CC0F808C04768B7430E79C6F3AB
:1003A000001696403E4346600E79F643B6070DD0E0
:1003B000C768560005FA06FC27EA0C07D1F808C002
:1003C0000CFA06FC4CEA070CC0F80CC00E7906F0DB
:1003D0000306022E10D1D60800EB8608D8F820605C
:1003E00057074FEAD76C09FA0CF7BE430F6907FAB3
:1003F0000CF73743C8F8207006684FEA420C05FA3C
:100400000CF7BE430F7907F0030707FA0CF73743E1
:1004100007604E6816F4403F6DD03B4E376847F496
:1004200080473760366822F0030706F4804600965E
:10043000364E07EB060CDCF8086897073F0F09FA01
:1004400007F826EA0806DFF8C880404503D14FF0D8
:1004500000081EE04FE0DFF8BC80404502D14FF0BD
:10046000010816E0DFF8B080404502D14FF00208E5
:100470000FE0DFF8A880404502D14FF0030808E004
:10048000DFF89C80404502D14FF0040801E04FF0B6
:10049000070808FA07F848EA0608CCF80888DAF8E6
:1004A00000605746D1F804C09E435FEACC2C00D5CB
:1004B0001E433E60DBF800605F46D1F804C09E43F7
:1004C0005FEA8C2C00D51E433E60DEF80060774664
:1004D000D1F804C09E435FEA8C3C00D51E433E60C9
:1004E000084F083F3E68D1F804C09E435FEACC3C09
:1004F00000D51E433E60521C102AFFF431AFBDE808
:10050000F88F0000083C01404438024000300140B0
:10051000000002400004024000080240000C0240BB
:10052000001002400AB1816170470904FBE7000036
:1005300001488068704700001C00002070B504006E
:1005400025D094F83D00002520B984F83C50204681
:1005500000F052FA242084F83D002068016821F060
:10056000010101602068016841F4004101602068D8
:10057000016821F40041016000F07EFC4D4A616891
:10058000914201D84C4900E04C49884201D20120F7
:1005900070BD4B492368B0FBF1F15E6826F03F0661
:1005A0000E435E606368934206D94FF496735943D5
:1005B0004FF47A73B1FBF3F12368491C1E6A26F0ED
:1005C0003F06314319626168914210D84900401ECC
:1005D000B0FBF1F2521CC2F30B02042A01D2042038
:1005E00022E0B0FBF1F0401CC0F30B001CE0A2685D
:1005F000F2B301EBC10303EB0116431EB3FBF6F3A9
:100600005B1C43F480431B0549D092B301EBC1024C
:1006100002EB0111401EB0FBF1F0401CC0F30B00D7
:1006200040F4804040F400402168CA694CF6FF73F2
:100630009A431043C861D4E9071001432068026857
:1006400022F0C00211430160D4E903010143206894
:10065000826848F2FF339A4311438160D4E905016F
:1006600008432168CA6822F0FF021043C86001E015
:100670000EE016E02068016841F001010160256488
:10068000202084F83D00256384F83E50002070BD92
:1006900001EB4106431EB3FBF6F35B1CB3E70120FD
:1006A000C2E701EB4101401EB0FBF1F0401CC0F37A
:1006B0000B00B7E7A086010080841E0000093D0002
:1006C00040420F002DE9FF4F83B09A46DDE91187C4
:1006D00093460446DDF84090FFF72AFF054694F85C
:1006E0003D00202870D1192301227449204600952D
:1006F00001F0E6FA0028F5D194F83C00012863D017
:10070000012084F83C0020680168C90703D1016812
:1007100041F0010101602068016821F4006101607D
:10072000222084F83D00402084F83E000026266404
:10073000C4F82490A4F82A80608D20856048E06287
:10074000CDE9007553465A462046049901F0BAF99E
:10075000002879D1208DD0B1012821D0022820682D
:1007600024D0416980690090208D032866D8012833
:100770002BD0544902283B464FF00002009557D039
:100780008846204601F09CFA00285DD13AE02068B6
:10079000416981690091016841F4007101607DE067
:1007A0002068016821F480610160F0E7016821F4AC
:1007B000806101602068016841F400610160206887
:1007C00041698069009069E075E02A463946204613
:1007D00001F01CFB88BB54E02068016841F4007103
:1007E000016020680069616A0870606A401C60628C
:1007F000218D491E2185618D491E61852168096908
:10080000017042E02068016821F480610160206885
:100810000069616A0870606A401C6062208D401E39
:100820002085608D401E60853B4600224146009534
:10083000204601F045FA00B9CEE705E02A463946E0
:10084000204601F0E3FA18B1012007B0BDE8F08FAF
:1008500020680069616A0870606A401C6062208DCF
:10086000401E81B22185608D401E608520684269EE
:10087000D243520712D4032903D1016821F48061C5
:10088000016020680069616A0870606A401C6062EB
:10089000208D401E2085608D401E6085208D0028A3
:1008A0007FF462AF202084F83D0084F83E6084F835
:1008B0003C600020C9E70220C7E7000002001000EA
:1008C0000000FFFF040001002DE9FF4F83B09A46AE
:1008D000DDE9119793460446DDF84080FFF728FED6
:1008E000054694F83D0020287FD119230122404974
:1008F0002046009501F0E4F9002876D194F83C00F8
:10090000012872D0012084F83C0020680168C907E2
:1009100003D1016841F0010101602068016821F400
:1009200000610160212084F83D00402084F83E00F1
:1009300000262664C4F82480A4F82A90608D2085BF
:100940002C48E062CDE9007553465A46204604998A
:1009500001F036F970B930E02A463946204601F0F8
:100960008DFA58B1206C042804D12068016841F444
:1009700000710160012007B0BDE8F08F606A216856
:1009800000780861606A401C6062218D491E89B24E
:100990002185628D521E628522685369DB435B07A5
:1009A0000BD469B100781061606A401C6062208DD0
:1009B000401E2085608D401E6085208D0028CBD193
:1009C0002A463946204601F04FF90028CAD154F88A
:1009D0003D0B016841F400710160202004F81E09FC
:1009E000E67766770020C6E7FFE70220C3E700004E
:1009F000020010000000FFFF2DE9F04186B0044620
:100A000014216846FFF71EFC2368294CDFF89CC0C0
:100A1000002727491225032604222648103463455F
:100A200019D10B6843F002030B600968049201F0CE
:100A300002010591C021CDE900150121CDE9021681
:100A40006946FFF77FFC206840F4001020602068B2
:100A500000F4001026E0DFF860C0634523D10B6886
:100A600043F002030B600968804601F00201059122
:100A70004FF480618DE8A200CDE903626946FFF77B
:100A800061FC08208DE8A1000920CDE903606946DA
:100A90004046FFF757FC206840F480002060206843
:100AA00000F48000059006B0BDE8F08100540040DD
:100AB000303802400004024000580040024881687B
:100AC00002781144816070471C0000200B4810B56B
:100AD000016841F400710160016841F480610160C6
:100AE000016841F480710160032000F06FF80F206D
:100AF00000F006F800F024F8002010BD003C024091
:100B000070B50D4D04464FF47A712878B1FBF0F0C2
:100B10000A490968B1FBF0F000F0EFFE48B9102C6B
:100B200007D200222146501E00F030F800206C60F1
:100B300070BD012070BD00001C00002028000020B6
:100B40000A4808B5016841F480410160006800F47A
:100B5000804000900548001F016841F0805101600D
:100B6000006800F08050009008BD0000443802404A
:100B7000002809DB00F01F0201219140400980009C
:100B800000F1E020C0F8001170470000F0B40E4BF7
:100B90001B680C46C3F30223C3F10705042D00D9DB
:100BA0000425191D072901D2002300E0DB1E0126C0
:100BB00006FA05F1491E214099409E40761E1640D6
:100BC0003143F0BC01F0F8BF0CED00E0064900F045
:100BD000070208684FF6FF03184040EA0220034A64
:100BE00010430860704700000CED00E00000FA05BB
:100BF0002DE9F843044600684FF00109C1074FF0A2
:100C0000000601D1400729D5DFF82081C8F86860C7
:100C1000FFF78EFC0746464D05E000BFFFF788FC56
:100C2000C01B022859D828680001F7D4A068217B8E
:100C3000800140EA0170616808433D4984310860E1
:100C4000C8F86890FFF774FC074604E0FFF770FCF3
:100C5000C01B022841D828680001F7D520788007FA
:100C600052D533484030016841F08051016000683E
:100C7000304D00F080500090286840F4807028606B
:100C8000FFF756FC074604E0FFF752FCC01B0228A2
:100C900023D82868C005F7D5254D7035286810F48D
:100CA000407020D0218A01F4407181421BD0286815
:100CB000214920F44070C1F800900E602860286837
:100CC000C00710D0FFF734FC064641F2883707E032
:100CD000FFF72EFC801BB84202D90320BDE8F88341
:100CE00028688007F4D521691148C1F30122083032
:100CF000032A12D0016821F4F81101602868218AC2
:100D0000C1F30B01084328602078000703D50B4985
:100D1000207DC1F8E0010020E0E70268084B22F4E2
:100D2000F81219400A430260E8E700000000474259
:100D30000038024000700040400E47420010474219
:100D4000FFFCFF0F2DE9F0470E46050065D0DFF8E8
:100D50001481D8F80000F7B200F00700B04207D2C3
:100D600088F80070D8F8000000F00700B04254D1B5
:100D700028683D4C810712D5400703D5206840F410
:100D8000E05020602878000703D5206840F46040D8
:100D900020602068A96820F0F000084320602878CF
:100DA000C0072DD0304968680839012812D00228C0
:100DB00013D0032811D00968890700292DDA21688A
:100DC00021F0030101432160FFF7B2FB814641F2AC
:100DD000883A0EE009688903EFE709688901ECE7C2
:100DE000FFF7A6FBA0EB0901514502D90320BDE89E
:100DF000F0872068696800F00C00B0EB810FEFD13C
:100E0000D8F80010404601F00701B14207D9077039
:100E1000006800F00700B04201D00120E7E7287821
:100E2000400705D52068E96820F4E05008432060B9
:100E30002878000706D52068296920F4604040EA38
:100E4000C100206000F038F82168084AC1F303119E
:100E5000515CC8400649086006480068FFF750FE2C
:100E60000020C4E7003C024008380240D8370008A0
:100E70002800002020000020044805490068096877
:100E8000044AC1F38221515CC84070472800002009
:100E900008380240E8370008044805490068096836
:100EA000044AC1F34231515CC84070472800002019
:100EB00008380240E8370008154810B5006810F0FF
:100EC0000C02144813D01449042A0FD0082A0ED15A
:100ED0000F4C241F2268236802F03F025B0207D5F3
:100EE0002068C0F38810A0FB010106E0084610BD91
:100EF0002168C1F38811A1FB00010023FFF76AF903
:100F00002168C1F30141491C4900B0FBF1F010BD5B
:100F1000083802400024F40040787D012DE9F84FA4
:100F200004006ED02078DFF84C93C007A9F10405C7
:100F30004AD009F104000168C1F38101012908D0F8
:100F40000068C0F3810002280AD1D9F800004002ED
:100F500006D52868800337D560680028E1D033E0E3
:100F60006068B0F5803F10D0B0F5A02F286810D091
:100F700020F480302860286820F480202860606891
:100F8000A8B1FFF7D5FA06460DE0286840F4803096
:100F9000F4E740F480202860F7E700BFFFF7C8FAC5
:100FA000801B642873D828688003F7D50CE0FFF70E
:100FB000BFFA064605E000BFFFF7BAFA801B6428B7
:100FC000F0D828688003F7D42078DFF8AC82800757
:100FD0004FF0000A3ED5A748001D016811F00C0F24
:100FE00008D00068C0F3810002280BD1D9F80000B6
:100FF000400207D42868800716D5E068012800D190
:1010000012E033E1E068B8B10120C8F80000FFF752
:101010008FFA064605E000BFFFF78AFA801B022818
:10102000C0D828688007F7D52868216920F0F80023
:1010300040EAC10028600DE0C8F800A0FFF778FA88
:10104000064604E0FFF774FA801B02281FD82868C0
:101050008007F7D42078000722D5864F874861693A
:10106000703771B101210160FFF762FA064604E0B2
:10107000FFF75EFA801B022809D838688007F7D589
:101080000EE0C0F800A0FFF753FA064605E082E044
:10109000FFF74EFA801B02287DD838688007F7D406
:1010A0002078400768D5DFF8CCB100270BF13C0B66
:1010B000DBF80000C0000BD4DBF8001041F08051D9
:1010C000CBF80010DBF80000012700F08050009002
:1010D0006B4E3068C00510D4306840F480703060CA
:1010E000FFF726FA009005E0FFF722FA0099401A70
:1010F000022850D83068C005F6D55E4EA0686C3620
:1011000001280FD00528306810D020F00100306091
:10111000306820F004003060A068B8B1FFF708FA2A
:1011200000900FE0306840F00100F4E740F0040068
:101130003060F7E7FFF7FCF90099411A41F2883077
:10114000814266D830688007F4D50EE0FFF7F0F9E9
:10115000009007E0FFF7ECF90099411A41F288305E
:10116000814256D830688007F4D42FB1DBF80010E4
:1011700021F08051CBF80010A069C8B33D49091D8A
:101180000968C1F3810102294AD00228504607D0DC
:10119000C8F8600000E03CE0FFF7CAF904463BE015
:1011A0004746C8F86000FFF7C3F9064605E000BFF0
:1011B000FFF7BEF9801B02282BD828688001F7D4DE
:1011C000D4E907010843A16A2E4A490802EB01410C
:1011D000626A41EA8211084394F82C1040EA0161E6
:1011E000C9F8001001203866FFF7A2F9044606E0AE
:1011F0003EE000BFFFF79CF9001B022809D82868D1
:101200008001F7D534E000BFFFF792F9001B0228F8
:1012100002D90320BDE8F88F28688001F4D427E0C4
:101220000128F7D0D9F80000E26900F4800191426A
:101230001CD1226A00F03F01914217D147F6C071DC
:10124000626A0140B1EB821F10D1A26A4FF0FF33F6
:1012500000F4403103EB5202B1EB024F06D194F897
:101260002C1000F07060B0EB016F01D00120D1E7CD
:101270000020CFE70438024000004742800E47427A
:10128000007000400000FFFF0068503050F821005F
:1012900070470068503040F8212070472DE9F74F23
:1012A0000446007F934601281BD04FF0010884F8C4
:1012B0001C80022060772168CA2048622068532180
:1012C0004162206880684FF0000540054FF0FF063E
:1012D0004FF0030A4FF47A790FD5FFF729F9074643
:1012E00007E00220BDE8FE8FFFF722F9C01B48454A
:1012F00019D82068C0684007F6D42068816821F4B6
:10130000806181602068C16801F0800161F49061B2
:10131000C160FFF70DF907460CE000BFFFF708F9C1
:10132000C01B484506D92068466284F81DA0257771
:101330000320D7E72068C0684007EFD520688168A0
:1013400021F0070181602068816841EA0B0181601A
:101350002168019848612068816841F4806181605A
:101360002068466284F81D8025770020BAE70000D7
:1013700010B500680B4641680D480140080CD87054
:10138000C1F304245C7001F03F049C70C1F342314E
:10139000197052B900F015FFD870587800F011FF9D
:1013A0005870987800F00DFF9870002010BD000074
:1013B0003FFFFF0010B50B460168896A596001685C
:1013C0000969C1F30E019960006801680D48014088
:1013D000C1F305401870C1F306245C7001F07F046E
:1013E0009C70890DD97052B900F0EBFE18705878D6
:1013F00000F0E7FE5870987800F0E3FE9870002047
:1014000010BD00007F7F7F0010B5040002D0607F18
:1014100010B106E0012010BD00202077204600F02A
:1014200041F8022060772068C168C943C90632D5F7
:10143000CA214162216853204862204600F0D6FE4E
:1014400020BB20688168164A114081602168886845
:1014500062681043D4E904231A431043886021686A
:10146000E068086120680169228941EA024101615E
:10147000204600F0DFFE48B921680A6C22F4802281
:101480000A6421680A6CA3691A430A642268FF216E
:10149000516208B110BD00200121617710BD00002C
:1014A000BFFF8FFF10B586B0044618216846FEF7CF
:1014B000C9FE0949206888420CD102200090C00171
:1014C00004906846FFF794FB08B1FEF712FF03494A
:1014D0000120086006B010BD002800403C0E4742C5
:1014E00070B50446007F0B46012819D001262677E7
:1014F00002206077B2B19878D97840EA01455878EF
:101500001978000240EA413005432168CA20486248
:10151000216853204862204600F068FED0B122E0E6
:10152000022070BD5878C10603D500F0EF000A30E4
:101530005870D87800F04EFE0204587800F04AFE49
:1015400042EA0022987800F045FE0243187842EA09
:101550004035DAE70748054020684560204600F03E
:1015600069FE00B966772268FF2151620021217768
:1015700070BD00003FFFFF002DE9F0410446007FF1
:101580000D46012823D04FF0010884F81C8002206A
:1015900060772068002780684FEA4060D2B1002859
:1015A00000DBEF70A878297840EA01466878E9788E
:1015B000000240EA815006432168CA20486221683F
:1015C00053204862204600F011FEB8B12CE0022002
:1015D000BDE8F081002800DBEF70287800F0FAFD0C
:1015E0000204687800F0F6FD42EA0022A87800F0D4
:1015F000F1FD0243E87842EA8056DDE70D480640F7
:10160000206806602068816821F480218160D5E926
:101610000301084321688A6810438860204600F06F
:1016200009FE08B984F81D802268FF2151622777DE
:10163000CEE700007F7F7F0070B504460B4821682D
:10164000C860FEF775FF05464FF47A7607E000BFE5
:10165000FEF76EFF401BB04201D9032070BD206829
:10166000C0688006F4D5002070BD00005F3F010017
:1016700070B5040009D0606A002540B1256165613C
:10168000A56294F8510040B10CE0012070BD606883
:10169000B0F5827FF4D0E561F2E784F8505020463F
:1016A00000F044F8022084F851002068016821F01D
:1016B00040010160A088218900F4827001F4044196
:1016C0000843A18901F400610843217C01F0020173
:1016D0000843217D01F001010843218B01F40071D1
:1016E0000843217F01F03801084394F8201001F0ED
:1016F00080010843218D01F40051084321680860EE
:10170000A069042101EA104094F8241001F01001AE
:101710000843216848602068C16921F40061C16103
:101720006565012084F85100002070BD10B586B0B9
:10173000044614216846FEF785FD13492068884257
:1017400020D112480021026842F4805202600068F1
:1017500000F4805005900D481438026842F00102F0
:101760000260006800F001000590A02000900220B7
:10177000CDE9010103200390052004906946044847
:10178000FEF7E0FD06B010BD0030014044380240D5
:10179000000002402DE9F84F984616468A46044656
:1017A000FEF7C6FE814694F8510001281ED1BAF119
:1017B000000F73D0002E71D094F85000012815D07E
:1017C000012784F85070032084F8510000256565D6
:1017D000C4F830A0A686E686A563A587E58765647C
:1017E0002564A068B0F5004F03D00CE00220BDE8EE
:1017F000F88F2068016821F04001016020680168CD
:1018000041F48041016020680168490603D4016801
:1018100041F040010160E068B0F5006F606803D0FE
:1018200048B3012E27D047E008B1012E1FD1206B0D
:1018300021680088C86006E020688168890709D5AA
:10184000216B0988C160206B801C2063E08E401EE4
:10185000E0860CE0FEF76CFEA0EB0901414503D3E6
:10186000B8F1FF3F03D035E0B8F1000F32D0E08E81
:101870000028E1D123E0206B21680078087306E09E
:101880002068816889070AD5216B09780173206B6C
:10189000401C2063E08E401EE0860DE02BE0FEF74A
:1018A00047FEA0EB0901414503D3B8F1FF3F03D048
:1018B00010E0B8F1000F0DD0E08E0028E0D14A46CC
:1018C0004146204600F0CCFC08B120206065A068AD
:1018D00030B109E084F8517084F85050032086E755
:1018E0002068C1688068009084F8517004F8505FE7
:1018F00060680028F3D0012079E710B5401EB0F1F0
:10190000807F01D3012010BD4FF0E02460610F21E2
:10191000601701F051F90020A0610720206100202C
:1019200010BD70B5040004D094F84100002510B13A
:1019300006E0012070BD84F84050204600F024F8F5
:10194000242084F841002068C16821F40051C1605E
:10195000204601F023F82068016921F490410161DB
:101960002068416921F02A0141612068C16841F481
:101970000051C1606564202084F8410084F8420071
:101980006563002070BD000010B586B004461421C8
:101990006846FEF757FC14492068884221D1134855
:1019A0000021026842F010020260006800F010009E
:1019B00005900E481438026842F001020260006887
:1019C00000F0010005904FF4C06000900220CDE9C6
:1019D0000101032003900720049069460448FEF7A4
:1019E000B1FC06B010BD00000010014044380240B8
:1019F000000002402DE9F843044690F84100984663
:101A000016460D46202802D00220BDE8F88385B195
:101A10007EB100206064212084F84100FEF788FD3B
:101A2000A6848146E684A0682027B0F5805F02D0B6
:101A300003E00120E9E7206910B12E4600250EE001
:101A400000260CE08021204601F02EF8A8B9C6B18E
:101A500016F8010B21684860E08C401EE084E08CA1
:101A60004B464FF00002CDF800800028EAD14FF03D
:101A70004001204601F018F840B184F8417003207D
:101A8000C3E735F8020BC0F30800E3E784F84170C0
:101A90000020BAE7FEE701684A69D24352050FD435
:101AA0006FF480624A61002140F8301F20224273A7
:101AB0008173026942F004020261017301207047E0
:101AC000002070472DE9F84F0446006889460B9DB9
:101AD00001689846174641F48061016020680168FA
:101AE00041F48071016000954FF0011B00225946BE
:101AF00020460A9B00F0E4F84FF4007A40B12068D9
:101B00000068C00501D5C4F840A00320BDE8F88FE7
:101B1000216809F0FE0008612B46284920460A9AF0
:101B200000F016F9F0BB20684169806900902A46F0
:101B300020460A9900F0A2F940B1206C04283AD15D
:101B40002068016841F40071016034E0FEB2B8F130
:101B5000010F09D02168380A08612A4620460A99EF
:101B600000F08CF90028E8D1206806612A4620465A
:101B70000A9900F083F90028DFD12068016841F458
:101B80008071016000950022594620460A9B00F0B2
:101B900097F80028B3D1216809F0FF0040F0010058
:101BA000086100E007E02B46044920460A9A00F04D
:101BB000CFF80028AAD00120A8E700000200010009
:101BC0002DE9F843044600680D46DDE908970168F1
:101BD0009846164641F4807101604B4600224FF052
:101BE00001112046009700F06BF848B120680068AA
:101BF000C00502D54FF4007020640320BDE8F883CF
:101C0000216805F0FE0008613B464A46154920461A
:101C100000F09EF888B920684169806900903A46D2
:101C20004946204600F02AF948B1206C042804D126
:101C30002068016841F4007101600120DEE7F5B21F
:101C4000B8F1010F09D02168300A08613A464946C7
:101C5000204600F013F90028E7D120680561002034
:101C6000CCE700000200010070B516460D460446A0
:101C70001EE02046FFF70FFF08B1012070BD681C71
:101C800016D0FEF755FC801BA84200D885B9206805
:101C90004069C04340070BD5002044F8300F202195
:101CA0006173A073216941F0200121612073E4E791
:101CB00020684069C0434007DBD4002070BD0000AD
:101CC0002DE9F047984617460D460446C1F30746EE
:101CD000DDF820902AE000BFB8F1FF3F26D0FEF7E4
:101CE00027FCA0EB0901414502D8B8F1000F1DD136
:101CF0002068012E16D0806925EA00000004000C3F
:101D000012D00020B84211D1002044F8300F202119
:101D10006173A073216941F02001216120730120CA
:101D2000BDE8F0874069E7E70120EBE72068012E76
:101D30000AD0806925EA00000004000C06D00020CB
:101D4000B842C9D00020EBE74069F3E70120F7E78C
:101D50002DE9F047984616460D4604464FF0000917
:101D60004FF0200AC1F3074723E020684069C043D1
:101D7000400515D42068016841F4007101602168B4
:101D80006FF480604861C4F8309084F83DA084F816
:101D90003E90216C41F00401216484F83C9021E0E4
:101DA000701C06D0FEF7C4FBA0EB0800B04203D8BD
:101DB00016B1012F1FD021E02068012F15D08069B6
:101DC00025EA00000004000C18D000BF44F8309F42
:101DD00084F80DA084F80E90216941F02001216162
:101DE00084F80C900120BDE8F087406925EA0000E6
:101DF0000004000CEAD12068406901E02068806995
:101E000025EA00000004000CAFD1ECE72DE9F04119
:101E1000002590460E460446202728E04069C0432E
:101E2000C0060CD454F8301B6FF01000486144F821
:101E300010596777A577206A2062257714E0FEF7AE
:101E400077FBA0EB0800B04200D886B92068406953
:101E5000C04340060BD544F8305F6773A573206913
:101E600040F02000206125730120BDE8F08120684A
:101E70004169C9434906D1D40020F6E770B516463A
:101E80000D4604461EE02046FFF705FE08B101207E
:101E900070BD681C16D0FEF74BFB801BA84200D813
:101EA00085B920684069C04300060BD5002044F87E
:101EB000300F20216173A073216941F0200121615D
:101EC0002073E4E720684069C0430006DBD40020AB
:101ED00070BD0000002210210148FEF723BB000066
:101EE00000000240012210210148FEF71BBB000048
:101EF00000000240012211460148FEF713BB00001A
:101F000000040240F0B587B014216846FEF79AF944
:101F10002A48016841F004010160016801F00401F0
:101F20000591016841F080010160016801F08001C4
:101F30000591016841F001010160016801F00101B2
:101F40000591016841F00201016000681C4E00F03B
:101F500002000590012210213046FEF7E3FA194FE6
:101F6000012207213846FEF7DDFA01241020CDE9D1
:101F70000004022569463046CDE90245FEF7E2F944
:101F80000720CDE9000469463846CDE90245FEF751
:101F9000D9F9202000904FF48810CDE9010469465A
:101FA0003846FEF7CFF9002211461720FEF7EEFD66
:101FB0001720FEF7DDFD07B0F0BD0000303802400D
:101FC00000000240000402400D4810B50B490160BA
:101FD0000C49416000214FF480428160C0E9031246
:101FE00041618161C1610162FEF7A8FA002803D056
:101FF000BDE81040FEF77DB910BD00000054004060
:1020000050000020801A06000D4810B50B490160F1
:102010000C49416000214FF480428160C0E9031205
:1020200041618161C1610162FEF788FA002803D035
:10203000BDE81040FEF75DB910BD0000005800403B
:10204000A4000020801A060010B586B0142168464E
:10205000FEF7F8F81F4800241D490594C0E9001454
:102060007F218160FF21C0E9031444618461FFF78F
:10207000CBF908B1FEF73DF98DF800408DF801402D
:102080008DF8024003940022694612480494FFF739
:1020900073FA08B1FEF72DF901208DF814008DF8C0
:1020A00015008DF816008DF81740002205A9094883
:1020B000FFF716FA08B1FEF71CF900221146054891
:1020C000FFF7ECF8002801D0FEF713F906B010BDB9
:1020D00000280040F8000020104810B50E490160AB
:1020E0004FF48271416000218160C1604FF4007241
:1020F0000161C0E905121822C0E90721416281622D
:102100000A21C162FFF7B4FA002803D0BDE81040ED
:10211000FEF7EFB810BD00000030014018010020AC
:102120000C4810B50A4901604FF4E13141600021CB
:1021300081600C22C160C0E904128161C161FFF7B6
:10214000F0FB002803D0BDE81040FEF7D2B810BD68
:10215000001001407001002010B501211448FFF764
:1021600093F84AF2A554A04220D012480F21002231
:102170000170352141701E21817001460C48FFF726
:10218000FBF90D481A210022C1700421417005217C
:1021900081700721017001460548FFF7A1F9224629
:1021A000BDE8104001210248FFF773B810BD0000E0
:1021B000F8000020B80100202C000020FEE7FEE718
:1021C0007047010901EB810100F00F0000EB4100B5
:1021D000C0B27047002102E00A38C0B2491C0A2888
:1021E000FAD2090740EA1160704700002DE9F0417A
:1021F000044600680025C168490618D4C16841F04A
:102200008001C160FEF794F906464FF47A780427FE
:1022100007E000BFFEF78CF9801B404501D96777C6
:1022200001252068C068400601D4002DF2D0284660
:10223000BDE8F08170B5044600680025C16821F052
:102240008001C16020688068800606D42046FFF7C0
:10225000F3F910B1042060770125284670BD000015
:10226000F8B515460E460B4600920446012202219F
:1022700000F02CF8A0B9134813490068B0FBF1F046
:102280004FF47A71484300906068B0F5827F0DD1B9
:102290003346002280212046009500F017F870B1E7
:1022A000606D40F0200060650320F8BD009830B1FB
:1022B000401E009020688068C0430006F6D50020CC
:1022C000F8BD00002800002000366E012DE9F8431B
:1022D0001E46914688460446089DFEF729F9401B94
:1022E000351AFEF725F9074626480068C0F3CB30BB
:1022F00068430AE0701C09D0FEF71AF9C01BA84217
:102300000FD275B10098B8B3401E00902068816864
:1023100038EA010033D000214945EBD10020BDE867
:10232000F8832068416821F0E00141606068B0F501
:10233000827F0BD1A068B0F5004F02D0B0F5806F5E
:1023400004D12068016821F040010160A06AB0F565
:10235000005F09D12068016821F400510160206804
:10236000016841F400510160012084F8510000200F
:1023700084F850000320D2E7FFE70025C6E70121DB
:10238000CAE700002800002008B5010A8DF80010F7
:102390008DF801000221684600F0EEF908BD2DE934
:1023A000FE4F161ACDE900104FF000085D1A47469F
:1023B0004FF0FF30002E02DD4FF0010102E003D1AB
:1023C0004FF000018B4602E08346C6F10006002D67
:1023D00002DD4FF0010002E003D14FF00000824621
:1023E00002E08246C5F10005AE4201DD344600E060
:1023F0002C46601C4FF00009029017E000980C9AE0
:1024000081B2019880B200F016F8B0442F44A04584
:1024100004DD0198A8EB040858440190A74203DDAD
:1024200000983F1B5044009009F101090299894529
:10243000E4DDBDE8FE8F10B514460B46024600F001
:102440004BF92046BDE81040FFF79EBF2DE9F84349
:102450001D46089C16460F4680460B460094FFF723
:102460009EFF42462B46394610460094FFF797FFE1
:1024700032462B46394610460094FFF790FF2B4614
:102480003246194640460094FFF789FFBDE8F883BD
:1024900038B5010A8DF800108DF80100002140F2D6
:1024A0001B13EF22084600F017F9054D0024022106
:1024B000684600F061F9641CAC42F8D338BD0000F6
:1024C000400A010010B5012204211348FEF72AF842
:1024D000FFF708FDFFF70EFD00F076F9112000F080
:1024E00025F90520FDF708FF7820FDF705FF2120DD
:1024F00000F01CF93A2000F019F9552000F02CF9F1
:10250000362000F013F9002000F026F9BDE8104055
:10251000292000F00BB90000000402402DE9F05F13
:102520000024102B13D002EBC207242B17D0302B22
:102530001DD0902B54D118253026A2F13003092B41
:102540001FD8284A02EB0714A4F5D8541CE0264BE8
:10255000082503EB02141026A4F5007414E0234AA6
:102560000C2502EB87041826A4F590640CE0204BA0
:1025700002EB4202102503EB02141826A4F5C064F6
:1025800002E03A2A00D11B4C8A19521E93B242191A
:10259000521E92B200F0A0F84FF000084FF0010B6D
:1025A0001CE000BF08F007014FEAD80A00270BFA29
:1025B00001F90DE00AFB0570C0B2215C19EA010FB8
:1025C00001D00B9800E00A98FFF7DEFE7F1CFFB2F7
:1025D000AF42EFD308F1010000F0FF08B045E1D3AE
:1025E000BDE8F09FF03700084C5D0008203E000871
:1025F0007C4B0008903D000830B58BB00022174995
:102600001748FEF7D7FE154816A14378027802A8AE
:1026100000F0BEFA4FF6FF740025CDE90054902378
:1026200002AA32213C2000F02FF8002210490C4869
:10263000FEF79EFE0E48817800914378C2780DA186
:1026400002A800F0A5FACDE90054242302AAF02143
:102650003C2000F019F80BB030BD0000B80100209C
:10266000F8000020253032643A2530326400000042
:102670002C0000203230253032642D253032642D7C
:1026800025303264000000002DE9FC471E46DDE9DC
:102690000A9815008A4607461CD0102E07D0242E13
:1026A00007D0302E07D0902E14D118240FE0082424
:1026B0000DE00C240BE0102409E0CDE9009833462E
:1026C00051463846FFF72AFF381987B26D1C2A7821
:1026D000002AF2D1BDE8FC8738B50D46010A8DF815
:1026E00000108DF80100100A8DF802001C468DF8CC
:1026F00003202A2000F01AF80421684600F03CF874
:10270000280A8DF800008DF80150200A8DF802008B
:102710008DF803402B2000F009F80421684600F0F2
:102720002BF82C2000F002F838BD000001B5FFF7AF
:10273000D1FB002201210648FDF7F4FEC823012247
:1027400069460448FFF726F8FFF7CCFB08BD0000F8
:10275000000402401801002001B5FFF7BBFBFFF7A2
:10276000C9FBC823012269460248FFF713F8FFF7A7
:10277000B9FB08BD1801002070B50C460546FFF7EF
:10278000A9FBFFF7B7FBC823224629460348FFF7FA
:1027900001F8BDE87040FFF7A5BB0000180100205C
:1027A00070B5141A5D1A641C6D1C6C43049EFFF70F
:1027B00093FF002503E03046FFF7E6FD6D1CA542C0
:1027C000F9D370BD7047000010B5094C00220221FA
:1027D0002046FDF7A7FE0A20FDF78EFD012202210B
:1027E0002046FDF79FFEBDE810407820FDF784BD30
:1027F00000040240FEF762B930B593B0302168465C
:10280000FDF720FD14210CA8FDF71CFD1E48002536
:10281000016841F080510160006800F08050119023
:102820001A48016841F4404101600068022400F444
:1028300040401190052000904FF48030019001201D
:1028400002908005CDE906400C2008906020CDE97B
:10285000090404200B906846FEF760FB08B172B6CD
:10286000FEE70CA90F2081E831004FF48050CDE93C
:102870000F0503210CA8FEF765FA002801D072B6F7
:10288000FEE713B030BD0000403802400070004049
:102890000248016841F470010160704788ED00E072
:1028A0000EB501236422CDE90013029202462A21CB
:1028B0000148FDF707FF0EBD500000200EB5642350
:1028C0008DE80E00024601232A210248FDF7FAFE98
:1028D0000EBD0000500000207CB54FF00005040044
:1028E0008DF8045018D001A90220FFF7D9FF08B1D4
:1028F000257111E09DF80400FF21B0FBF1F201FB0E
:1029000012000028F4D0042269460320FFF7D6FF06
:1029100020B125712580658000207CBD9DF80010C8
:102920009DF8010001F00F0140EA012020809DF890
:1029300002109DF8030001F00F0140EA01206080C1
:1029400000F026FC6080012020717CBD01680C3104
:1029500051E8002F22F4907241E80023002BF5D1BA
:102960000168143151E8002F22F0010241E80023F0
:10297000002BF5D1016B012909D101680C3151E817
:10298000002F22F0100241E80023002BF5D1202176
:1029900080F84210002101637047000070B50446C2
:1029A00000680169E26821F4405111430161216925
:1029B000A068E26908436169114308432168CA6855
:1029C00049F20C639A430243CA6020684169A269D4
:1029D00021F440711143416131492068884202D09D
:1029E0003049884202D1FEF757FA01E0FEF744FA77
:1029F000E2690023192164253226B2F5004F62688E
:102A000028D0A0FB0101930F9200FDF7E3FB0146E4
:102A1000B0FBF5F06FF01802504301EB800006EBBD
:102A20000010B0FBF5F000F0F002B1FBF5F002EBA6
:102A30000012B1FBF5F06FF01803584301EB800072
:102A400006EB0010B0FBF5F000F00F002168104419
:102A5000886070BDA0FB010192185B41FDF7BAFBD5
:102A60000146B0FBF5F00201B1FBF5F06FF0180381
:102A7000584301EB800006EBC000B0FBF5F000F01E
:102A8000F80002EB4002B1FBF5F0584301EB800087
:102A900006EBC000B0FBF5F000F00700D6E7000041
:102AA00000100140001401402DE9F84398461746F4
:102AB0000D460446089E24E0701C22D0FDF738FD28
:102AC000A0EB0800B0421AD8CEB12068C16849070F
:102AD00017D5802D15D0402D13D00168C9430907A3
:102AE0000FD401680025406800902046FFF72EFFB4
:102AF0000820606484F840500120BDE8F88303207A
:102B0000FBE72068006835EA000004D00020B842E6
:102B1000D2D00020F1E70120F9E7000010B5FDF761
:102B200007FD0149086110BD3000002010B50022EA
:102B300004210348FDF7F6FC02490020487010BD4F
:102B4000000402403000002010B501220421054895
:102B5000FDF7E8FC044C01206070FDF7E9FC206102
:102B600010BD00000004024030000020FEE700001D
:102B70000FB4054B10B503A9044A029800F03CF8C5
:102B800010BC5DF814FB0000452F00084C0000202D
:102B90000FB4084B10B504A902AA039800F02CF852
:102BA000044602A9002000F0C8F9204610BC5DF8D8
:102BB00014FB00003B2F00080907090E002804DB66
:102BC00000F1E02080F80014704700F00F0000F1E1
:102BD000E02080F8141D704702E008C8121F08C1E9
:102BE000002AFAD170477047002001E001C1121F8E
:102BF000002AFBD1704700002DE9FF4F8BB08846BB
:102C00000546002606E025280BD0DDE90D12904789
:102C10006D1C761C28780028F5D10FB03046BDE831
:102C2000F08F0024A146A2460122AE4900E00443F1
:102C300015F8013F203B02FA03F00842F7D128784B
:102C40002A2810D06FF02F022878A0F1300109292E
:102C500015D809EB890102EB410144F0020400EBB5
:102C600001096D1CF0E758F8041B5FEA010903D560
:102C700044F40054C9F1000944F002046D1C2878A2
:102C80002E2817D115F8010F44F004042A280ED07D
:102C90006FF02F022878A0F1300109290AD80AEB39
:102CA0008A0102EB410100EB010A6D1CF2E758F8C2
:102CB00004AB6D1C28786C280FD006DC4C2817D08C
:102CC00068280DD06A2814D104E0742810D07A281E
:102CD0000FD10DE044F400140AE044F4801401E044
:102CE00044F440146978814202D104F580146D1CCB
:102CF0006D1C2878692865D006DC00288DD06328F3
:102D000027D0642806D15DE06E2808D073282AD029
:102D1000752877D0DDE90D129047761CE0E0C4F30A
:102D20000250022809D003280DD0D8F8001004283A
:102D30000DD00E6008F10408D2E0D8F80010F217A8
:102D4000C1E90062F6E7D8F800100E80F2E70E70D5
:102D5000F0E718F8041B8DF8001000208DF8010032
:102D6000EB46012003E058F804BB4FF0FF30610749
:102D70004FF0000701D40AE07F1C57450DDA874267
:102D8000FADB1BF807100029F6D106E07F1C87420A
:102D9000FCDB1BF807100029F8D1DDE90D23A9EBB6
:102DA00007008146214600F0B1F83044C61904E01E
:102DB000DDE90D121BF8010B90477F1EF8D221466A
:102DC000484688E058F8040BC4F302514FF00A0B50
:102DD000032900D100B2042900D140B2002802DA50
:102DE00040422D2102E0210505D52B218DF824102C
:102DF000012104E006E0E10710D02021F6E708AF4A
:102E0000089113E058F8040BC4F302514FF00A0B79
:102E1000032900D180B2042900D1C0B20021EEE71D
:102E20005946FDF71AFA303107F8011D0028F7D18D
:102E3000ADEB070000F1200B600702D524F48034CD
:102E400001E04FF0010ADA4502DDAAEB0B0000E0D9
:102E50000020824600EB0B0108980144A9EB010019
:102E60000A90E00306D4DDE90D2321460A9800F01C
:102E70004DF806444FF0000908E009A911F80900CF
:102E8000DDE90D12904709F10109761C0899894581
:102E9000F3DBE0030CD5DDE90D2321460A9800F0B1
:102EA00035F8064404E0DDE90D1230209047761C29
:102EB000BAF10001AAF1010AF5DC05E0DDE90D1225
:102EC00017F8010B9047761CBBF10001ABF1010B29
:102ED000F4DC0A982146DDE90D2300F005F80644EC
:102EE0006D1C97E6092801002DE9F04104460025F4
:102EF0001E461746880404D405E039462020B04712
:102F00006D1C641EF9D52846BDE8F0812DE9F0411D
:102F1000044600251E469046C80301D5302700E030
:102F20002027880404D505E041463846B0476D1C8B
:102F3000641EF9D52846BDE8F0810A68531C0B6071
:102F40001070704713B54FF0FF33012269460248F5
:102F5000FEF750FD00981CBD70010020FDF7B6FD86
:102F6000FFF74AFCFEF7CEFFFFF7B6F8FFF76CF865
:102F7000FFF72AF8FFF7D4F8FFF746F8FFF7A2FAB1
:102F8000FFF7EAF80020FFF783FA012000F072FA59
:102F900000F094F82F4D304E304C2078012835D178
:102FA000002020702D480830FFF796FC3078E0B301
:102FB000FFF7B4FD28780428284800F1080009D05C
:102FC00000F072FA48B103280ED0042810D002286D
:102FD00015D01BE000F08CF918E02048083041883B
:102FE000008800F087FB11E0287801280CD00DE064
:102FF000287802280AD1012000F03CFA06E028785F
:10300000012803D0022801D00220F5E730780128FA
:1030100017D1FDF78DFA6168401AC82804D3FDF76F
:1030200087FA606000F0B4FA00E00EE0FDF780FA85
:103030000B490968401A42F21071884201D9FFF722
:1030400075FD00F067F80028A7D0FFF77DFDFFF7BA
:1030500065FDA2E7300000203100002000000020C4
:10306000400000207CB514460D46064606226946FF
:103070003B2000F041F8BDF8000040BA3080BDF8B8
:10308000020040BA2880BDF8040040BA20807CBD10
:103090007CB514460D46064606226946432000F0DC
:1030A0002BF8BDF8000040BA3080BDF8020040BAED
:1030B0002880BDF8040040BA20807CBD10B50121F5
:1030C0006B2000F053F800216C2000F04FF809212C
:1030D000192000F04BF806211A2000F047F81821BB
:1030E0001B2000F043F800211C2000F03FF8BDE851
:1030F00010406420FDF700B90EB564238DE80E0082
:1031000002460123D0210248FDF7DCFA0EBD000083
:10311000A4000020FEB502AA01A96846FFF7A2FF9D
:103120001148BDF80450BDF8006042880188AA1A11
:1031300013B2BDF80840828806804580711AA21A31
:10314000848009B241F288300C1842F2117112B237
:103150008C4205D203448B4202D21044884201D3F0
:103160000120FEBD0020FEBD4400002003B583B059
:103170006423012204A98DE80E0013460246D021E3
:103180000248FDF7A1FB05B000BD0000A40000202F
:10319000322801D2322004E04FF48B71884200D9EA
:1031A00008466FF48D71A0F21B104843E42190FB98
:1031B000F1F080B2704700007CB50020FFF768F99D
:1031C0004FF6FF75002430230BA21E214820CDE9C5
:1031D0000045FFF759FA302309A278213220CDE9C2
:1031E0000045FFF751FA302307A2A0213220CDE994
:1031F0000045FFF749FA7CBD4845414C5448000062
:1032000048454152543A000053504F323A000000B2
:1032100010B50020FFF73CF9BDE81040FFF7ECB90E
:103220007CB50020FFF734F94FF6FF7500243023FA
:1032300024A214215820CDE90045FFF725FACDE955
:1032400000546423DC223221142000F0D3F8CDE9AD
:1032500000549B23DC226921142000F0CBF8CDE937
:103260000054D223DC22A021142000F0C3F8CDE9C1
:10327000005440F20913DC22D721142000F0BAF8E0
:10328000302312A240214820CDE90045FFF7FCF988
:10329000302310A277215820CDE90045FFF7F4F93B
:1032A00030230EA2AE212820CDE90045FFF7ECF92E
:1032B00030230DA2E5214020CDE90045FFF7E4F9D8
:1032C0007CBD00004D454E55000000004845414C76
:1032D000544800004452415700000000544F5543E9
:1032E00048205445535400004D5055363035300079
:1032F0002DE9FC41044600790026224D012802D028
:10330000AE70BDE8FC814FF487775A20CDE9000705
:1033100061882088F0230A2200F09CF801281AD046
:10332000EF20CDE9000761882088F0239F2200F07C
:1033300091F8012815D0A8784FF6FF72B0B100922D
:1033400063882288E988A888FFF729F82088A88060
:103350006088E880D5E7AE70BDE8FC41022000F04F
:1033600089B8AE70BDE8FC4100F00EB80120A8702D
:103370002088A8806188E98002B0BDE8F041FFF7AD
:103380005AB80000300000207CB50020FFF780F81C
:1033900000244FF6FF75CDE900544FF4877633468D
:1033A0005A22F0210A2000F025F8CDE900543346D6
:1033B000EF22F0219F2000F01DF84FF47840CDE976
:1033C0000040242307A2F3211A20FFF75DF94FF4F0
:1033D000FC60CDE90040242304A2F321AE20FFF7D6
:1033E00053F97CBD4241434B00000000434C454132
:1033F000520000002DE9F8430746DDE90808009077
:103400001C4615460E463846FFF720F8641E6D1E12
:10341000761C7F1CA3B2AAB2B1B2B8B2CDF80080BC
:10342000FFF7BEF9BDE8F8831CB50020FFF730F8C0
:103430004FF6FF710020CDE90001302302A21E21CA
:103440002820FFF721F91CBD544F5543482054450F
:103450005354000030B59042DDE9035407D3A8422D
:1034600005D8994203D3A14201D8012030BD0020E4
:1034700030BD00000B490728087011D2DFE800F0CA
:1034800010040E06080A0C00FFF7C2BE00F01EB9B9
:10349000FFF77ABFFFF790BEFFF7C6BFFFF7C0BECA
:1034A000704700003000002070B502792B49012AD6
:1034B00001D052B150E0CA78002A4DD10122CA7021
:1034C00002880A814088488146E0CA78012A43D1AF
:1034D0000022CA7002888A814088C8810B894C8981
:1034E000D21A12B2001B02F11D0500B23A2D05D806
:1034F00000F11D053A2D01D8002070BD002A01DB26
:10350000154600E05542061E00DA4642B5420BDD84
:10351000002A04DD12A0FFF72BFB022070BD13A0D0
:10352000FFF726FB012070BD002801DB054600E007
:103530004542002A00DA524295420BDD002804DDA4
:103540000DA0FFF715FB042070BD0EA0FFF710FBC8
:10355000032070BD8B81CC81052070BD3000002020
:10356000D3D2BBACD2BBB4CE00000000D7F3BBAC0F
:10357000D2BBB4CE00000000CFC2BBACD2BBB4CE35
:1035800000000000C9CFBBACD2BBB4CE000000002D
:103590007CB53A48007804286ED2DFE800F06D026E
:1035A0006D06BDE87C40FFF727B8354A35493648F7
:1035B000FFF758FD354A36493648FFF769FD32486E
:1035C00035A1B0F900203648FFF7E2FA4FF6FF7553
:1035D00000242423324A96211E20CDE90045FFF71E
:1035E00053F828482FA1B0F900202D48FFF7D0FA52
:1035F00024232B4AB4211E20CDE90045FFF744F8CF
:103600001F482AA1B0F900202548FFF7C1FA24235A
:10361000234AD2211E20CDE90045FFF735F81D4889
:1036200024A1B0F900201E48FFF7B2FA9621242306
:103630001B4A0846CDE90045FFF726F814481FA1AC
:10364000B0F900201648FFF7A3FA2423144AB42146
:103650009620CDE90045FFF717F80C4819A1B0F9FD
:1036600000200F48FFF794FA24230D4AD221962018
:10367000CDE90045FFF708F87CBD000030000020D0
:1036800012000020100000200E0000201800002072
:103690001600002014000020415820252D3664001B
:1036A000CC010020415920252D366400415A2025A7
:1036B0002D366400475820252D36640047592025B3
:1036C0002D366400475A20252D3664001CB5002095
:1036D000FEF7DEFE4FF6FF710020CDE9000130233A
:1036E00002A21E214020FEF7CFFF1CBD4D505536D3
:1036F0003035300070B5064632488AB00D46007845
:10370000072822D2DFE800F0212123212121040013
:1037100032462DA102A8FFF73BFA4FF6FF740026B0
:10372000CDE90064302302AA50214620FEF7ACFF09
:103730002A4627A102A8FFF72BFACDE9006430231F
:1037400002AA6E214620FEF79FFF0AB070BD6420DA
:10375000DC24CDE900403223142229463046FFF70D
:1037600079FE012827D09B20CDE90040692314224F
:1037700029463046FFF76EFE01281ED0D220CDE943
:103780000040A023142229463046FFF763FE01289B
:1037900015D040F20910CDE90040D7231422294664
:1037A0003046FFF757FE0128CFD103200AB0BDE80D
:1037B0007040FFF75FBE0520F8E70420F6E706201B
:1037C000F4E7000030000020583A252D3364000053
:1037D000593A252D3364000000000000000000006D
:1037E00001020304060708090000000001020304A7
:1037F00000000000000000000000000000000000C9
:10380000000000000000000000000080E0F03C0E1E
:1038100006030101010103020E3CF8E080000000F4
:103820000000F8FFFF03000000000000000000009F
:10383000000003FFFFFC000000003FFFFF800000CE
:103840000000000000000000000080FFFF3F0000BB
:10385000000000030F1F7860C0800000000080801F
:10386000E0783F0F030000000000000000000000AF
:103870000001010101010100000000000000000042
:103880000000000000000000000000000000000038
:103890000000000000000000000000000000080818
:1038A000080808FCFEFF0000000000000000000007
:1038B0000000000000000000000000FFFFFF00000B
:1038C00000000000000000000000000000000000F8
:1038D000000000FFFFFF00000000000000000000EB
:1038E0000000000000000000000080FFFFFF8000DB
:1038F00000000000000000000000000000000101C6
:1039000001010101010101010101010000000000AC
:1039100000000000000000000000000000000000A7
:103920000000000000000000000000E0F8FC0402BD
:103930000201010101010303061EFCF8E000000082
:1039400000000003070707000000000000000080DF
:10395000E0F87F1F0700000000000000000000806A
:10396000C0E070381C0E07030100000000000000DA
:103970000000E0F0F8DEC7C3C1C0C0C0C0C0C0C016
:10398000C0E0E0F80E0000000000010101010101AB
:10399000010101010101010101010101000000001B
:1039A0000000000000000000000000000000000017
:1039B000000000000000000000000000F0F8C40259
:1039C00002010101010103061EFCF8E000000000F5
:1039D00000000000000101000080808080C0406085
:1039E000381F0F030000000000000000000000006E
:1039F0000000000000010103060EFCF8E0000000DA
:103A00000000001E3F7FCE8000000000000080808C
:103A1000C0703F1F07000000000000000000000011
:103A2000010101010101010000000000000000008F
:103A30000000000000000000000000000000000086
:103A40000000000000000000000000000000000076
:103A5000000000C03018FEFFFF0000000000000062
:103A6000000000000000C060180E03000000FFFF0F
:103A7000FF00000000000000000060785C4741404B
:103A8000404040404040FFFFFF4040404040000079
:103A90000000000000000000000000000080FFFFA8
:103AA000FF80000000000000000000000000000097
:103AB00000010101010101010101010101010000F9
:103AC00000000000000000000000000000000000F6
:103AD00000000000000000000000000000FF0707D9
:103AE0000707070707070707070707070000000082
:103AF00000000000FFFF80C0603030303030307098
:103B0000E0C0C0000000000000000000838301004E
:103B100000000000000000000007FFFFFC000000A4
:103B20000000000F3F7FC780800000000000808001
:103B3000E0783F1F030000000000000000000000CC
:103B4000010101010101010000000000000000006E
:103B50000000000000000000000000000000000065
:103B6000000000000000000000000000C0F0380C61
:103B70000602020101010101013E3C380000000083
:103B80000000F0FFFF0380C06060303030303070E4
:103B900060E0C080000000000000FFFFFF070100A0
:103BA0000000000000000000000003FFFFFC000018
:103BB000000000071F3E70E0C08000000000008091
:103BC00080C0783F1F0300000000000000000000DC
:103BD00000010101010101010000000000000000DE
:103BE00000000000000000000000000000000000D5
:103BF0000000000000000000000000E07F1F0F0731
:103C00000707070707070707C7671F0F030000001D
:103C1000000000000000000000000000C0F03C07B1
:103C20000100000000000000000000000000000093
:103C300000E0F8FF0F00000000000000000000009E
:103C40000000000000000000FEFFFFFF0000000079
:103C50000000000000000000000000000000000064
:103C60000001010000000000000000000000000052
:103C70000000000000000000000000000000000044
:103C80000000000000000000000000E0F8FC1E063C
:103C90000201010101010103061EFCF8E000000021
:103CA000000000070F3F3E78F0F0E0C0C080C06029
:103CB00070381F0F030000000000C0F0FC3E070337
:103CC000010001010303070F1E7EFCF0C00000008D
:103CD0000000071F3F70C0808000000000000080CF
:103CE000C0703F1F0700000000000000000000003F
:103CF00001010101010101000000000000000000BD
:103D000000000000000000000000000000000000B3
:103D10000000000000000000000080F0F83C0E02EF
:103D200003010101010102060C78F0C0000000004F
:103D300000007FFFFFC00000000000000000000046
:103D400080C0FFFFFE00000000000003070F0E1CF4
:103D50001C181818180C0C0603E0FFFF1F000000C9
:103D60000000000078F8F8000000000080C0E0705B
:103D70003C1F0701000000000000000000000001DF
:103D8000010101010100000000000000000000002E
:103D90000000000000000000000000000000000023
:103DA0000000000000000000000000000000000013
:103DB0000000000000000000000000000000000003
:103DC000000000000000000000387C7C7C3800000F
:103DD00000000000000000000000000000000000E3
:103DE00000000000000000000000000000000000D3
:103DF000000000000000000000E0F0F0F0E0000033
:103E000000000000000000000000000000000000B2
:103E1000000001010100000000000000000000009F
:103E20000000000000000000000000000000000092
:103E30000000000000000000000000000000000082
:103E4000000000000000000000F0F0000000000092
:103E50000000000000770F000000000000000000DC
:103E6000001C1C000000000000008060301C8C6002
:103E7000301C0C00000000000000000000000000EA
:103E80000000000000000000000000000000000032
:103E9000F000000000F00000008383FF8383838331
:103EA000FB87830000011F01010101011F010100C7
:103EB000000080C06020F820E0C000000000030780
:103EC0000C18FF71E18100000000070F12107F1035
:103ED0000F070000C0301030C00000C030000000EC
:103EE00007181018CF38C6311030C000000018076E
:103EF00000000718101807000000E0F010F0E000C4
:103F000000000000C0E0173FF8C70308F8080800E9
:103F1000070F181010130F0E1910100C00008C4C06
:103F20003800000000000000000000000000000059
:103F30000000000000000000000000000000000081
:103F40000000000000008060100804000000000075
:103F500000FE010000000000000000000000030C53
:103F600010204000000408106080000000000000E5
:103F7000000000000001FE000000000000402010D2
:103F80000C03000000000000000000000000C080E2
:103F900000000000006666243810FF183C246666A6
:103FA000000000000000030000000000000000000E
:103FB0000000800000000000001010101010FF1022
:103FC00010101010000000000000030000000000AE
:103FD00000000000000000000000000000000000E1
:103FE000000000000000000000008C4C38000000C1
:103FF00000000000000000000000000000000000C1
:104000000010101010101010101010000000000010
:1040100000000000000000000000000000000000A0
:104020000000000000000000000000000000000090
:1040300000001C1C1C00000000000000000000002C
:1040400000000000E0380C000000000080701C033D
:10405000000000000060380E0100000000000000B9
:10406000000080C060202060C080000000FEFF01D2
:104070000000000001FFFE000001070E18101018DC
:104080000E0701000000404040C0E00000000000BA
:104090000000000000FFFF00000000000000101002
:1040A000101F1F10101000000080402020202060F2
:1040B000C08000000003030000C060301F07000044
:1040C00000181C1211101010101E000000C0C0209B
:1040D000202060C080000000000101001010182F97
:1040E000E7800000000E0E10101010180F070000DF
:1040F00000000000000080E0E000000000C0A09888
:10410000848380FFFF808080000000000010101F6B
:104110001F1010000000E0202020202020200000A0
:1041200000003F1008080818F0E0000000070B101E
:104130001010101C0F030000000080C04020202041
:10414000E0C0000000FCFF211008080818F0E000A3
:104150000001070C18101010080F03000000C060C9
:104160002020202020E06000000001000000E01876
:104170000700000000000000001F1F0000000000FA
:104180000080C0602020202060C080000083CF6CB1
:104190001810303068CF830000070F08101010107F
:1041A000180F07000000C0C020202020C0800000A1
:1041B000001F3F604040402010FFFE0000000C1C2C
:1041C000101010080F0300000000000000000000A5
:1041D0000000000000000000001C1C1C000000008B
:1041E00000000000001C1C1C00000000000000007B
:1041F000000000000000000000000000000C0C00A7
:10420000000000000000000000D83800000000009E
:104210000000000000000080402010000000102876
:1042200044820100000000000000000000000102C4
:104230000408100000000000000000000000000062
:1042400000444444444444444444440000000000C6
:10425000000000000000000000001020408000006E
:10426000000000000000000000000182442810004F
:10427000000010080402010000000000000080405F
:10428000402020202060C080000007060000E010D1
:1042900018080F0700000000001C1C1C0000000094
:1042A0000000C0E020109090A060800000FEFF00A1
:1042B000F8FF03FC07807F000000070E18111111A2
:1042C000090C0200000000008060E0000000000017
:1042D000000080784740415FF0800000101C131000
:1042E00000000000111F18100020E0E020202060D6
:1042F000C0C000000000FFFF101010182FE7800062
:1043000000101F1F10101010180F0700000080C0B1
:104310004020202060E0800000FCFF010000000041
:10432000000003000001070E18101010080C030015
:104330002020E0E020202040C08000000000FFFF9F
:104340000000000001FFFE0010101F1F10101008D9
:104350000E07010020E0E020202020206060800087
:1043600000FFFF10101010FC00000100101F1F10B4
:10437000101010101018060020E0E020202020204F
:104380006060800000FFFF10101010FC00000100B2
:10439000101F1F101000000000000000000080C06F
:1043A000602020204080000000FCFF010000404011
:1043B000C0C340400001070E181010100F0F00007E
:1043C00020E0E0200000000020E0E02000FFFF10DF
:1043D0001010101010FFFF00101F1F100000000031
:1043E000101F1F100000202020E0E02020200000EF
:1043F0000000000000FFFF0000000000000010109F
:10440000101F1F1010100000000000202020E0E00E
:1044100020202000000000000000FFFF000000003E
:104420000060E08080C07F3F0000000020E0E020CE
:104430000000A0E06020000000FFFF300C3AE180A7
:1044400000000000101F1F10000000131E181000B5
:1044500020E0E020200000000000000000FFFF003E
:104460000000000000000000101F1F1010101010AE
:104470001018060020E0E000000000C0E0E020008E
:1044800000FF0FFFE0807C03FFFF0000101F100003
:104490000F0700101F1F10000020E0E08000002028
:1044A00020E020200000FF01071E78C000FF000070
:1044B00010101F10100000030F1F0000000080C02C
:1044C00060202060C080000000FEFF0100000000AE
:1044D00000FFFE000001070E181010180C07010065
:1044E00020E0E0202020202040C0800000FFFF20AE
:1044F00020202030101F0F00101F1F101000000080
:1045000000000000000080C060202060C08000002B
:1045100000FEFF010000000000FFFE000001070E8A
:104520001911173C6C67210020E0E020202020209A
:1045300060C0800000FFFF10101070D0080F07004F
:10454000101F1F1000000001071E18100080C0601F
:104550002020202040E0000000070F1C1838307099
:10456000E0E1800000070C0810101010180F070081
:104570008060202020E0E0202020608001000000FA
:1045800000FFFF000000000100000010101F1F10BE
:10459000100000000020E0E02000000020E02000EB
:1045A0000000FFFF0000000000FF00000000070FF8
:1045B00018101010080700002060E0200000000024
:1045C000A06020000000077EE00080780700000067
:1045D00000000000071E03000000000020E0200093
:1045E0002060E0200020E0200003FFC0C03C3FF03E
:1045F000807C03000000001F0300001F0700000074
:10460000002060E020000020E020200000000001E9
:10461000877CE886010000000010181601000013D6
:104620001E1810002060E0200000000020A0602084
:104630000000010F3CF8E018060100000000001027
:10464000101F1F10100000000080E06020202020BC
:10465000A0E02000000100008060180603000000B8
:1046600000101C1711101010101806000000000098
:1046700000FC0404040400000000000000FF00002F
:104680000000000000000000007F404040400000AB
:10469000000030C00000000000000000000000002A
:1046A0000718E08000000000000000000000000388
:1046B0000C708000000004040404FC0000000000F2
:1046C000000000000000FF0000000000000040406B
:1046D00040407F00000000000000000804020204C7
:1046E00008000000000000000000000000000000C2
:1046F00000000000000000000000000000000000BA
:1047000000000000000000000000000000000000A9
:104710000000000080808080808080808080808099
:104720000000000404080800000000000000000071
:104730000000000000000000000000000000000079
:104740000000000000000000000000000000000069
:104750000000989884444444FCF80000000F1F199E
:10476000101010080F1F10180020E0F000000000CB
:10477000000000000000FFFF180804040CF8F0001F
:1047800000001F0F08101010180F03000000000099
:10479000000000000000000000E0F8180404043CE1
:1047A0003800000000030F0C101010100806000065
:1047B0000000000000002020E0F0000000E0F81CF5
:1047C00004040408FFFF000000030F181010100875
:1047D0001F0F0800000000000000000000000000A3
:1047E0000000E0F8888484848CF8E0000000030F67
:1047F0000C101010100804000000000080C06020A1
:1048000020E0C00000040404FFFF040404000000D2
:10481000000010101F1F101010000000000000000A
:104820000000000000000000000070F88C040CFC88
:10483000F40C0C0000707ECF85858DCD787800005B
:104840000020E0F000000000000000000000FFFF7A
:1048500008040404FCF8000000101F1F10000010E2
:104860001F1F10000000000000606000000000003A
:104870000000040404FCFE00000000000000101012
:10488000101F1F10101000000000000000006060EA
:104890006000000000000000040404FCFE000000B2
:1048A0000000C0C08080C07F3F0000000020E0F01A
:1048B00000000000000000000000FFFF8040E01C3E
:1048C0000404000000101F1F100000131E18100029
:1048D0000000202020E0F0000000000000000000A8
:1048E00000FFFF000000000000001010101F1F104C
:1048F0001010000000000000000000000000000098
:1049000004FCFC0804FCF80804FCFC00101F1F1049
:10491000101F1F10101F1F100000000000000000DB
:10492000000000000004FCFC08040404FCF8000083
:1049300000101F1F100000101F1F100000000000BB
:10494000000000000000000000E0F0180C04040C5F
:1049500018F0E00000030F0C101010100C0F0300F3
:104960000000000000000000000000000004FCFC4B
:10497000080404040CF8F0000080FFFF8890101079
:104980001C0F0300000000000000000000000000F9
:1049900000E0F81C04040408F8FC000000030F18F1
:1049A00010109088FFFF8000000000000000000051
:1049B00000000000040404FCFC100804041C18009F
:1049C0001010101F1F101010000000000000000049
:1049D000000000000000000000003878CCC484848F
:1049E0000C3C000000001E18101011191F0F0000D1
:1049F0000000000000C000000000000000040404EB
:104A0000FFFF040404000000000000000F1F10104E
:104A1000100C00000000000000000000000000007A
:104A20000004FCFE00000004FCFE000000000F1F5C
:104A3000181010081F0F0800000000000000000000
:104A40000000000000040C7CC4000080740C040012
:104A500000000000031F0C03000000000000000025
:104A60000000000000000000041CF48004ECFC8442
:104A700000E41C040000011F0F00000F0F000000E5
:104A80000000000000000000000000000000040C16
:104A90003CE4C0241C0404000010101C120101138B
:104AA0001C181000000000000000000000000000C2
:104AB0000004043CC40000C43C0404000000C080A6
:104AC000817F0E01000000000000000000000000D7
:104AD0000000000000003C0404C4741C0C00000032
:104AE0000000181E13111010180E00000000000026
:104AF000000000F80404000000000000001028C7B7
:104B000000000000000000000000003F40400000E6
:104B1000000000000000FF00000000000000000096
:104B20000000FF0000000000000000000000FF0087
:104B30000000000000000404F80000000000000075
:104B400000000000C72810000000000000004040E6
:104B50003F00000000000000000C020202040818E0
:104B600010100C0000000000000000000000000019
:104B70000000000000000000000000000000000035
:104B80000000000000000000000000000000000025
:104B90000000000000000000000000000000000015
:104BA0000000000000000000000000000000000005
:104BB000000000F0F0000000000000000000000015
:104BC000000000FF0F0000000000000000000000D7
:104BD0000000081C1C0800000000000000008060AD
:104BE00030181C8C6030181C0C0000000000000005
:104BF00000000000000000000000000000000000B5
:104C000000000000000000000000000000000000A4
:104C100080F00000000000C070000000008383836B
:104C2000FF838383838383FF838383000001011FCA
:104C30000301010101011F0101010100000000C089
:104C4000C02020F8F81020E0C000000000000003A1
:104C5000070E0CFFFF3061E1C10000000000070FEC
:104C60000B10107F7F10080F0700000080E020105D
:104C700010E0C0000000806000000000030F101072
:104C8000101FC7300CE320101060C0000000001897
:104C900004030000000F0810100C0700000000C003
:104CA00020101010E0C000000000000000C0201F15
:104CB0003E78E886030108F01000000003070C1896
:104CC0001010110B0F0E0F181010080400008C4C60
:104CD0007C3C00000000000000000000000000001C
:104CE00000000000000000000000000000000000C4
:104CF00000000000000000000000000000000000B4
:104D00000000000080C03010080400000000000017
:104D1000000000FEFF000000000000000000000096
:104D20000000000003070C102040000000000408F1
:104D30001060C080000000000000000000000000C3
:104D4000000001FF7E000000000000000040402045
:104D5000100C07030000000000000000000000002D
:104D6000000000C0C00000000000000000C6C646F1
:104D70006C2828FFD7282C64C6C6C200000000009B
:104D8000000000030300000000000000000000001D
:104D900000000000C0000000000000000010101023
:104DA00010101010FF101010101010000000000064
:104DB00000000000030000000000000000000000F0
:104DC00000000000000000000000000000000000E3
:104DD00000000000000000000000000000008C4CFB
:104DE0007C3C00000000000000000000000000000B
:104DF0000000000000000000000000000010101083
:104E000010101010101010101010100000000000F2
:104E10000000000000000000000000000000000092
:104E20000000000000000000000000000000000082
:104E30000000000000000000000000000000081C4E
:104E40001C0800000000000000000000000000003E
:104E500000000000000000C020180000000000005A
:104E60000000C030180601000000000000403008BB
:104E7000060100000000000000000000000000C06B
:104E8000C0602010102020C0C00000000000FFFF04
:104E90000000000000000000FFFF0000000001070C
:104EA0000E0810101010080E07010000000000008E
:104EB000004040E0F00000000000000000000000A2
:104EC000000000FFFF0000000000000000000000E4
:104ED0001010101F1F18101010000000000080C0DC
:104EE0002020101010102060C0800000000003037C
:104EF000030080406030180E0703000000001C1EF5
:104F00001A191818181818181C060000000080C07C
:104F1000A0101010102060E0C00000000000000190
:104F20000100001018181C67E38000000000060F45
:104F30000A1010101010080C0703000000000000F9
:104F400000000000C0E0F0F0000000000080C0B0F1
:104F50009884828180FFFFFF808080000000000035
:104F600000001010101F1F1F10101000000000E0A4
:104F70002020202020202020200000000000001FF2
:104F80000808040404040818F0E000000000070FFB
:104F90000B1010101010080C070300000000008018
:104FA000C0202010101010E0E00000000000FFFF03
:104FB0001008080804040818F8F0000000000307AF
:104FC0000C08101010101008070300000000C0604B
:104FD00020202020202020A06020000000000100D0
:104FE000000080E0700C02010000000000000000E2
:104FF00000001F1F0C000000000000000000C0C0E7
:105000002020101010102020C08000000000C36776
:105010002C1C181810303864C78300000003070CDC
:1050200008101010101010080F0700000000C0C07A
:1050300020201010102020E0C000000000071F3FBB
:105040002060404040203098FFFF00000000000C2E
:105050001C10101010080C070300000000000000D6
:105060000000000000000000000000000000000040
:1050700000000C0E0C00000000000000000000000A
:105080000000181C1C0000000000000000000000D0
:105090000000000000000000000000000000000010
:1050A00000000C0C0C0000000000000000000000DC
:1050B0000000187838000000000000000000000028
:1050C00000000000808040203010000000001038F8
:1050D0002C4482810100000000000000000000005C
:1050E000000000010102040C0800000000000000A4
:1050F00000000000000000000000000000404444E8
:1051000044444444444444444444400000000000B7
:10511000000000000000000000000000000010304F
:10512000204080800000000000000000000000001F
:10513000000000018182442C3810000000000008AB
:105140000C04020101000000000000000000C0602B
:105150002010101010101020E0C000000000030309
:10516000020000E03010180C0F07000000000000E3
:105170000000181D1C00000000000000000000805E
:1051800040202010109090A0A0C08000007CFF0163
:1051900000F81E0301C0FC1F00807F000000030711
:1051A0000C0811111110110909040200000000007F
:1051B0000000C020F080000000000000000000801F
:1051C000704E4140415FFCE00000000010101C13D5
:1051D000100000000000101F1F181000000020E049
:1051E000E020202020202060C0800000000000FF80
:1051F000FF10101010081814E7E380001010101FA3
:105200001F101010101010080F070300000000C03E
:10521000C02020101010102020E0800000FCFF872C
:105220000000000000000000000001000000030773
:105230000C0810101010100808060100000020E0F3
:10524000E0202020202020C0C0800000000000FFBF
:10525000FF00000000000000FFFF7E000010101F94
:105260001F1010101008080607030000000020E0BF
:10527000E02020202020202020608000000000FF6F
:10528000FF1010101010187E000000000010101FFA
:105290001F10101010101010181C0200000020E049
:1052A000E0202020202020202060C000000000FFFF
:1052B000FF1010101010107C000000000010101FD4
:1052C0001F1010000000000000000000000080C05F
:1052D0006020201010102060F000000000FEFF0190
:1052E00000000000000020C0C041000000000307D3
:1052F0000C0810101010100F0F0000000000E0E06C
:105300002000000000000020E0E000000000FFFF9F
:105310001010101010101010FFFF000010101F1FB1
:1053200010100000000010101F1F100000000000EF
:10533000202020E0E02020200000000000000000ED
:10534000000000FFFF00000000000000000000104F
:105350001010101F1F10101010000000000000009F
:105360000000202020E0E0202020000000000000BD
:105370000000000000FFFF0000000000006060E08F
:1053800080808040403F1F0000000000000020E0BF
:10539000E02000000000E06020200000000000FF8E
:1053A000FF10081C7AE18000000000000010101FB0
:1053B0001F1010000000131F1C181000000020E038
:1053C000E02000000000000000000000000000FFDE
:1053D000FF00000000000000000000000010101F8F
:1053E0001F10101010101010181C06000020E0E014
:1053F00080000000000000E0E0E020000000FF016D
:105400001FFCC000C0380700FFFF000010101F1075
:1054100000000F1E010010101F1F10100020E06080
:10542000E08000000000000020E020000000FF00FD
:105430000003071E38F0C08000FF000010101F108E
:1054400010000000000001070E1F0000000080C0D7
:105450006020101010102060C0800000007CFFFF52
:10546000000000000000000003FFFE000000030732
:105470000C0810101010080807030000000020E0BE
:10548000E020202020202020E0C08000000000FF3D
:10549000FF101010101010100C0F03000010101F40
:1054A0001F1010000000000000000000000080C07D
:1054B0006020101010102060C080000000FEFF83EC
:1054C000000000000000000083FFFE000000030752
:1054D0000E091111131E3C7C67230000000020E020
:1054E000E020202020202060E0C00000000000FF1D
:1054F000FF10101030F0C80C070300000010101F40
:105500001F1010000000030F1C1010000000C060EE
:105510002010101010102060E000000000000706AE
:105520000C08181810303060E080000000011E0CDC
:1055300008101010101010080F03000000C06020A9
:10554000202020E0E02020202060800000000000DB
:10555000000000FFFF00000000000000000000004D
:105560000010101F1F101000000000000020E0E0DD
:105570002000000000000000E02000000000FFFF0D
:105580000000000000000000FF0000000000030F0A
:105590000C1010101010080807000000002020E078
:1055A000E000000000000000E02000000000000318
:1055B0001FFEF00000E018070000000000000000DF
:1055C0000000071F07000000000000000020E0A00E
:1055D000000000E0E000000000E02000000007FF05
:1055E000F000F00E1FFEC0C03C03000000000000F1
:1055F0001F0F000000031F030000000000002060D8
:10560000E0800000000000E020200000000000001A
:105610000003CF3C78E68100000000000010101865
:10562000161100000001131F1C181000000020E0DC
:10563000E0000000000000A060200000000000006A
:10564000030F3CF0E018060100000000000000001D
:105650000010101F1F101000000000000000C060AC
:10566000202020202020A0E0E020000000000000FA
:1056700000C0E0701C0E0301000000000010181EA6
:105680001711101010101018180E00000000000064
:105690000000FCFC040404040404000000000000FA
:1056A0000000FFFF000000000000000000000000FC
:1056B00000007F7F4040404040400000000000303C
:1056C000E08000000000000000000000000000007A
:1056D0000001071C70C00000000000000000000076
:1056E000000000000001071C70C00000000004045E
:1056F00004040404FCFC00000000000000000000A2
:1057000000000000FFFF000000000000000040401B
:10571000404040407F7F000000000000000000008B
:105720000808040404040800000000000000000051
:105730000000000000000000000000000000000069
:105740000000000000000000000000000000000059
:105750000000000000000000000000000000000049
:105760000000000000000000000000008080808039
:105770008080808080808080808080800000000029
:1057800004040408080000000000000000000000FD
:105790000000000000000000000000000000000009
:1057A00000000000000000000000000000000000F9
:1057B0000000000000000000000000000000189839
:1057C00084844444444444F8F000000000060F0F71
:1057D000101010101008080F1F100800000020F013
:1057E000000000000000000000000000000000FFBA
:1057F000300804040404040CF8F000000000000F5A
:105800000C08101010101008070300000000000022
:105810000000000000000000000000000000E0F0B8
:10582000180C040404040418180000000000030706
:105830000C081010101010080C02000000000000EE
:1058400000000000000010E0F00000000000E0F0A8
:10585000180C0404040408FFFF0000000000030704
:105860000C0810101008081F0F08080000000000A6
:105870000000000000000000000000000000E0F058
:1058800098848484848484887870000000000307EE
:105890000C08101010101008040000000000000098
:1058A0000000C06020202020206060000000040470
:1058B0000404FF04040404040400000000001010A9
:1058C00010101F1010101010000000000000000049
:1058D0000000000000000000000000000000007058
:1058E000D8040404040488F8240C0C00000070564A
:1058F0008D858D8D8D89888878700000000010F06E
:10590000F00000000000000000000000000000FFA8
:10591000FF080404040404FCF80000000010101F39
:105920001F1000000000101F1F10100000000000DA
:105930000000007070200000000000000000000463
:10594000040404FCFC000000000000000000001043
:105950001010101F1F101010100000000000000099
:105960000000000000006070200000000000000047
:1059700000000004040404FC00000000000040C01B
:10598000C08080808080603F00000000000010F038
:10599000F00000000000000000000000000000FF18
:1059A000FF804060E0940C04040400000010101F0D
:1059B0001F1000000003171C18101000000000004A
:1059C000101010F0F00000000000000000000000C7
:1059D000000000FFFF0000000000000000000010B9
:1059E0001010101F1F101010100000000000000009
:1059F0000000000000000000000000000404FC089B
:105A0000040404FCF808040404FCF80010101F103F
:105A10001000101F1F100000101F1F1000000000BA
:105A2000000000000000000000000000000404FC72
:105A3000FC080404040404FCF80000000010101F1B
:105A40001F1000000000101F1F10100000000000B9
:105A50000000000000000000000000000000E0F86E
:105A60000804040404040408F8F00000000003071C
:105A700008101010101010080703000000000000AC
:105A8000000000000000000000000000000404FC12
:105A9000FC08040404040408F8F00000000080FF7F
:105AA000FF881010101008080F0700000000000009
:105AB0000000000000000000000000000000F0F8FE
:105AC00008040404040408F8FC0000000000070FA8
:105AD00008101010101088FFFF8000000000000068
